{
  "contractName": "SmokeToken",
  "abi": [
    {
      "inputs": [],
      "stateMutability": "nonpayable",
      "type": "constructor"
    },
    {
      "anonymous": false,
      "inputs": [
        {
          "indexed": true,
          "internalType": "address",
          "name": "owner",
          "type": "address"
        },
        {
          "indexed": true,
          "internalType": "address",
          "name": "spender",
          "type": "address"
        },
        {
          "indexed": false,
          "internalType": "uint256",
          "name": "value",
          "type": "uint256"
        }
      ],
      "name": "Approval",
      "type": "event"
    },
    {
      "anonymous": false,
      "inputs": [
        {
          "indexed": false,
          "internalType": "address",
          "name": "address_",
          "type": "address"
        }
      ],
      "name": "NewMember",
      "type": "event"
    },
    {
      "anonymous": false,
      "inputs": [
        {
          "indexed": true,
          "internalType": "bytes32",
          "name": "role",
          "type": "bytes32"
        },
        {
          "indexed": true,
          "internalType": "bytes32",
          "name": "previousAdminRole",
          "type": "bytes32"
        },
        {
          "indexed": true,
          "internalType": "bytes32",
          "name": "newAdminRole",
          "type": "bytes32"
        }
      ],
      "name": "RoleAdminChanged",
      "type": "event"
    },
    {
      "anonymous": false,
      "inputs": [
        {
          "indexed": true,
          "internalType": "bytes32",
          "name": "role",
          "type": "bytes32"
        },
        {
          "indexed": true,
          "internalType": "address",
          "name": "account",
          "type": "address"
        },
        {
          "indexed": true,
          "internalType": "address",
          "name": "sender",
          "type": "address"
        }
      ],
      "name": "RoleGranted",
      "type": "event"
    },
    {
      "anonymous": false,
      "inputs": [
        {
          "indexed": true,
          "internalType": "bytes32",
          "name": "role",
          "type": "bytes32"
        },
        {
          "indexed": true,
          "internalType": "address",
          "name": "account",
          "type": "address"
        },
        {
          "indexed": true,
          "internalType": "address",
          "name": "sender",
          "type": "address"
        }
      ],
      "name": "RoleRevoked",
      "type": "event"
    },
    {
      "anonymous": false,
      "inputs": [
        {
          "indexed": true,
          "internalType": "address",
          "name": "from",
          "type": "address"
        },
        {
          "indexed": true,
          "internalType": "address",
          "name": "to",
          "type": "address"
        },
        {
          "indexed": false,
          "internalType": "uint256",
          "name": "value",
          "type": "uint256"
        }
      ],
      "name": "Transfer",
      "type": "event"
    },
    {
      "anonymous": false,
      "inputs": [
        {
          "indexed": false,
          "internalType": "uint256",
          "name": "timestamp",
          "type": "uint256"
        },
        {
          "indexed": false,
          "internalType": "uint256",
          "name": "individualAmount",
          "type": "uint256"
        }
      ],
      "name": "WooWednesday",
      "type": "event"
    },
    {
      "anonymous": false,
      "inputs": [
        {
          "indexed": false,
          "internalType": "address",
          "name": "address_",
          "type": "address"
        },
        {
          "indexed": false,
          "internalType": "uint256",
          "name": "amount",
          "type": "uint256"
        }
      ],
      "name": "Wooed",
      "type": "event"
    },
    {
      "inputs": [],
      "name": "DEFAULT_ADMIN_ROLE",
      "outputs": [
        {
          "internalType": "bytes32",
          "name": "",
          "type": "bytes32"
        }
      ],
      "stateMutability": "view",
      "type": "function"
    },
    {
      "inputs": [],
      "name": "ORACLE",
      "outputs": [
        {
          "internalType": "bytes32",
          "name": "",
          "type": "bytes32"
        }
      ],
      "stateMutability": "view",
      "type": "function"
    },
    {
      "inputs": [
        {
          "internalType": "address",
          "name": "owner",
          "type": "address"
        },
        {
          "internalType": "address",
          "name": "spender",
          "type": "address"
        }
      ],
      "name": "allowance",
      "outputs": [
        {
          "internalType": "uint256",
          "name": "",
          "type": "uint256"
        }
      ],
      "stateMutability": "view",
      "type": "function"
    },
    {
      "inputs": [
        {
          "internalType": "address",
          "name": "spender",
          "type": "address"
        },
        {
          "internalType": "uint256",
          "name": "amount",
          "type": "uint256"
        }
      ],
      "name": "approve",
      "outputs": [
        {
          "internalType": "bool",
          "name": "",
          "type": "bool"
        }
      ],
      "stateMutability": "nonpayable",
      "type": "function"
    },
    {
      "inputs": [
        {
          "internalType": "address",
          "name": "account",
          "type": "address"
        }
      ],
      "name": "balanceOf",
      "outputs": [
        {
          "internalType": "uint256",
          "name": "",
          "type": "uint256"
        }
      ],
      "stateMutability": "view",
      "type": "function"
    },
    {
      "inputs": [],
      "name": "decimals",
      "outputs": [
        {
          "internalType": "uint8",
          "name": "",
          "type": "uint8"
        }
      ],
      "stateMutability": "view",
      "type": "function"
    },
    {
      "inputs": [
        {
          "internalType": "address",
          "name": "spender",
          "type": "address"
        },
        {
          "internalType": "uint256",
          "name": "subtractedValue",
          "type": "uint256"
        }
      ],
      "name": "decreaseAllowance",
      "outputs": [
        {
          "internalType": "bool",
          "name": "",
          "type": "bool"
        }
      ],
      "stateMutability": "nonpayable",
      "type": "function"
    },
    {
      "inputs": [
        {
          "internalType": "bytes32",
          "name": "role",
          "type": "bytes32"
        }
      ],
      "name": "getRoleAdmin",
      "outputs": [
        {
          "internalType": "bytes32",
          "name": "",
          "type": "bytes32"
        }
      ],
      "stateMutability": "view",
      "type": "function"
    },
    {
      "inputs": [
        {
          "internalType": "bytes32",
          "name": "role",
          "type": "bytes32"
        },
        {
          "internalType": "address",
          "name": "account",
          "type": "address"
        }
      ],
      "name": "grantRole",
      "outputs": [],
      "stateMutability": "nonpayable",
      "type": "function"
    },
    {
      "inputs": [
        {
          "internalType": "bytes32",
          "name": "role",
          "type": "bytes32"
        },
        {
          "internalType": "address",
          "name": "account",
          "type": "address"
        }
      ],
      "name": "hasRole",
      "outputs": [
        {
          "internalType": "bool",
          "name": "",
          "type": "bool"
        }
      ],
      "stateMutability": "view",
      "type": "function"
    },
    {
      "inputs": [
        {
          "internalType": "address",
          "name": "spender",
          "type": "address"
        },
        {
          "internalType": "uint256",
          "name": "addedValue",
          "type": "uint256"
        }
      ],
      "name": "increaseAllowance",
      "outputs": [
        {
          "internalType": "bool",
          "name": "",
          "type": "bool"
        }
      ],
      "stateMutability": "nonpayable",
      "type": "function"
    },
    {
      "inputs": [],
      "name": "name",
      "outputs": [
        {
          "internalType": "string",
          "name": "",
          "type": "string"
        }
      ],
      "stateMutability": "view",
      "type": "function"
    },
    {
      "inputs": [
        {
          "internalType": "bytes32",
          "name": "role",
          "type": "bytes32"
        },
        {
          "internalType": "address",
          "name": "account",
          "type": "address"
        }
      ],
      "name": "renounceRole",
      "outputs": [],
      "stateMutability": "nonpayable",
      "type": "function"
    },
    {
      "inputs": [
        {
          "internalType": "bytes32",
          "name": "role",
          "type": "bytes32"
        },
        {
          "internalType": "address",
          "name": "account",
          "type": "address"
        }
      ],
      "name": "revokeRole",
      "outputs": [],
      "stateMutability": "nonpayable",
      "type": "function"
    },
    {
      "inputs": [
        {
          "internalType": "bytes4",
          "name": "interfaceId",
          "type": "bytes4"
        }
      ],
      "name": "supportsInterface",
      "outputs": [
        {
          "internalType": "bool",
          "name": "",
          "type": "bool"
        }
      ],
      "stateMutability": "view",
      "type": "function"
    },
    {
      "inputs": [],
      "name": "symbol",
      "outputs": [
        {
          "internalType": "string",
          "name": "",
          "type": "string"
        }
      ],
      "stateMutability": "view",
      "type": "function"
    },
    {
      "inputs": [],
      "name": "totalSupply",
      "outputs": [
        {
          "internalType": "uint256",
          "name": "",
          "type": "uint256"
        }
      ],
      "stateMutability": "view",
      "type": "function"
    },
    {
      "inputs": [
        {
          "internalType": "address",
          "name": "recipient",
          "type": "address"
        },
        {
          "internalType": "uint256",
          "name": "amount",
          "type": "uint256"
        }
      ],
      "name": "transfer",
      "outputs": [
        {
          "internalType": "bool",
          "name": "",
          "type": "bool"
        }
      ],
      "stateMutability": "nonpayable",
      "type": "function"
    },
    {
      "inputs": [
        {
          "internalType": "address",
          "name": "sender",
          "type": "address"
        },
        {
          "internalType": "address",
          "name": "recipient",
          "type": "address"
        },
        {
          "internalType": "uint256",
          "name": "amount",
          "type": "uint256"
        }
      ],
      "name": "transferFrom",
      "outputs": [
        {
          "internalType": "bool",
          "name": "",
          "type": "bool"
        }
      ],
      "stateMutability": "nonpayable",
      "type": "function"
    },
    {
      "inputs": [],
      "name": "generateSmoke",
      "outputs": [],
      "stateMutability": "nonpayable",
      "type": "function"
    },
    {
      "inputs": [
        {
          "internalType": "uint256",
          "name": "amount",
          "type": "uint256"
        }
      ],
      "name": "woo",
      "outputs": [],
      "stateMutability": "nonpayable",
      "type": "function"
    },
    {
      "inputs": [],
      "name": "wooWednesday",
      "outputs": [],
      "stateMutability": "nonpayable",
      "type": "function"
    },
    {
      "inputs": [
        {
          "internalType": "uint256",
          "name": "mintAmount_",
          "type": "uint256"
        }
      ],
      "name": "setMintAmount",
      "outputs": [],
      "stateMutability": "nonpayable",
      "type": "function"
    },
    {
      "inputs": [],
      "name": "getMintAmount",
      "outputs": [
        {
          "internalType": "uint256",
          "name": "",
          "type": "uint256"
        }
      ],
      "stateMutability": "view",
      "type": "function"
    },
    {
      "inputs": [
        {
          "internalType": "address",
          "name": "address_",
          "type": "address"
        }
      ],
      "name": "setOracle",
      "outputs": [],
      "stateMutability": "nonpayable",
      "type": "function"
    }
  ],
  "bytecode": "0x608060405262000014620000fd60201b60201c565b600a6200002291906200038c565b610444620000319190620004c9565b6006553480156200004157600080fd5b506040518060400160405280600a81526020017f536d6f6b65546f6b656e000000000000000000000000000000000000000000008152506040518060400160405280600481526020017f534d4b45000000000000000000000000000000000000000000000000000000008152508160039080519060200190620000c692919062000281565b508060049080519060200190620000df92919062000281565b505050620000f76000801b336200010660201b60201c565b620005e2565b60006012905090565b6200011882826200011c60201b60201c565b5050565b6200012e82826200020e60201b60201c565b6200020a5760016005600084815260200190815260200160002060000160008373ffffffffffffffffffffffffffffffffffffffff1673ffffffffffffffffffffffffffffffffffffffff16815260200190815260200160002060006101000a81548160ff021916908315150217905550620001af6200027960201b60201c565b73ffffffffffffffffffffffffffffffffffffffff168173ffffffffffffffffffffffffffffffffffffffff16837f2f8788117e7eff1d82e926ec794901d17c78024a50270940304540a733656f0d60405160405180910390a45b5050565b60006005600084815260200190815260200160002060000160008373ffffffffffffffffffffffffffffffffffffffff1673ffffffffffffffffffffffffffffffffffffffff16815260200190815260200160002060009054906101000a900460ff16905092915050565b600033905090565b8280546200028f9062000541565b90600052602060002090601f016020900481019282620002b35760008555620002ff565b82601f10620002ce57805160ff1916838001178555620002ff565b82800160010185558215620002ff579182015b82811115620002fe578251825591602001919060010190620002e1565b5b5090506200030e919062000312565b5090565b5b808211156200032d57600081600090555060010162000313565b5090565b6000808291508390505b600185111562000383578086048111156200035b576200035a62000577565b5b60018516156200036b5780820291505b80810290506200037b85620005d5565b94506200033b565b94509492505050565b600062000399826200052a565b9150620003a68362000534565b9250620003d57fffffffffffffffffffffffffffffffffffffffffffffffffffffffffffffffff8484620003dd565b905092915050565b600082620003ef5760019050620004c2565b81620003ff5760009050620004c2565b8160018114620004185760028114620004235762000459565b6001915050620004c2565b60ff84111562000438576200043762000577565b5b8360020a91508482111562000452576200045162000577565b5b50620004c2565b5060208310610133831016604e8410600b8410161715620004935782820a9050838111156200048d576200048c62000577565b5b620004c2565b620004a2848484600162000331565b92509050818404811115620004bc57620004bb62000577565b5b81810290505b9392505050565b6000620004d6826200052a565b9150620004e3836200052a565b9250817fffffffffffffffffffffffffffffffffffffffffffffffffffffffffffffffff04831182151516156200051f576200051e62000577565b5b828202905092915050565b6000819050919050565b600060ff82169050919050565b600060028204905060018216806200055a57607f821691505b60208210811415620005715762000570620005a6565b5b50919050565b7f4e487b7100000000000000000000000000000000000000000000000000000000600052601160045260246000fd5b7f4e487b7100000000000000000000000000000000000000000000000000000000600052602260045260246000fd5b60008160011c9050919050565b612f5c80620005f26000396000f3fe608060405234801561001057600080fd5b50600436106101735760003560e01c80637adbf973116100de578063a9059cbb11610097578063d547741f11610071578063d547741f14610474578063db6baad014610490578063dd62ed3e1461049a578063eb660e77146104ca57610173565b8063a9059cbb1461041e578063c7cd997f1461044e578063cd8ceee71461046a57610173565b80637adbf9731461034857806391d148541461036457806395d89b4114610394578063a217fddf146103b2578063a457c2d7146103d0578063a8995deb1461040057610173565b80632f2ff15d116101305780632f2ff15d14610274578063313ce5671461029057806336568abe146102ae57806338013f02146102ca57806339509351146102e857806370a082311461031857610173565b806301ffc9a71461017857806306fdde03146101a8578063095ea7b3146101c657806318160ddd146101f657806323b872dd14610214578063248a9ca314610244575b600080fd5b610192600480360381019061018d9190611f31565b6104e6565b60405161019f9190612357565b60405180910390f35b6101b0610560565b6040516101bd919061238d565b60405180910390f35b6101e060048036038101906101db9190611e84565b6105f2565b6040516101ed9190612357565b60405180910390f35b6101fe610610565b60405161020b91906125cf565b60405180910390f35b61022e60048036038101906102299190611e31565b61061a565b60405161023b9190612357565b60405180910390f35b61025e60048036038101906102599190611ec4565b610712565b60405161026b9190612372565b60405180910390f35b61028e60048036038101906102899190611ef1565b610732565b005b61029861075b565b6040516102a59190612613565b60405180910390f35b6102c860048036038101906102c39190611ef1565b610764565b005b6102d26107e7565b6040516102df9190612372565b60405180910390f35b61030260048036038101906102fd9190611e84565b61080b565b60405161030f9190612357565b60405180910390f35b610332600480360381019061032d9190611dc4565b6108b7565b60405161033f91906125cf565b60405180910390f35b610362600480360381019061035d9190611dc4565b6108ff565b005b61037e60048036038101906103799190611ef1565b610978565b60405161038b9190612357565b60405180910390f35b61039c6109e3565b6040516103a9919061238d565b60405180910390f35b6103ba610a75565b6040516103c79190612372565b60405180910390f35b6103ea60048036038101906103e59190611e84565b610a7c565b6040516103f79190612357565b60405180910390f35b610408610b67565b60405161041591906125cf565b60405180910390f35b61043860048036038101906104339190611e84565b610b71565b6040516104459190612357565b60405180910390f35b61046860048036038101906104639190611f5e565b610b8f565b005b610472610be5565b005b61048e60048036038101906104899190611ef1565b610d34565b005b610498610d5d565b005b6104b460048036038101906104af9190611df1565b610eea565b6040516104c191906125cf565b60405180910390f35b6104e460048036038101906104df9190611f5e565b610f71565b005b60007f7965db0b000000000000000000000000000000000000000000000000000000007bffffffffffffffffffffffffffffffffffffffffffffffffffffffff1916827bffffffffffffffffffffffffffffffffffffffffffffffffffffffff191614806105595750610558826110a9565b5b9050919050565b60606003805461056f90612852565b80601f016020809104026020016040519081016040528092919081815260200182805461059b90612852565b80156105e85780601f106105bd576101008083540402835291602001916105e8565b820191906000526020600020905b8154815290600101906020018083116105cb57829003601f168201915b5050505050905090565b60006106066105ff611113565b848461111b565b6001905092915050565b6000600254905090565b60006106278484846112e6565b6000600160008673ffffffffffffffffffffffffffffffffffffffff1673ffffffffffffffffffffffffffffffffffffffff1681526020019081526020016000206000610672611113565b73ffffffffffffffffffffffffffffffffffffffff1673ffffffffffffffffffffffffffffffffffffffff168152602001908152602001600020549050828110156106f2576040517f08c379a00000000000000000000000000000000000000000000000000000000081526004016106e99061248f565b60405180910390fd5b610706856106fe611113565b85840361111b565b60019150509392505050565b600060056000838152602001908152602001600020600101549050919050565b61073b82610712565b61074c81610747611113565b611567565b6107568383611604565b505050565b60006012905090565b61076c611113565b73ffffffffffffffffffffffffffffffffffffffff168173ffffffffffffffffffffffffffffffffffffffff16146107d9576040517f08c379a00000000000000000000000000000000000000000000000000000000081526004016107d09061258f565b60405180910390fd5b6107e382826116e5565b5050565b7f352d05fe3946dbe49277552ba941e744d5a96d9c60bc1ba0ea5f1d3ae000f7c881565b60006108ad610818611113565b848460016000610826611113565b73ffffffffffffffffffffffffffffffffffffffff1673ffffffffffffffffffffffffffffffffffffffff16815260200190815260200160002060008873ffffffffffffffffffffffffffffffffffffffff1673ffffffffffffffffffffffffffffffffffffffff168152602001908152602001600020546108a89190612655565b61111b565b6001905092915050565b60008060008373ffffffffffffffffffffffffffffffffffffffff1673ffffffffffffffffffffffffffffffffffffffff168152602001908152602001600020549050919050565b61090c6000801b33610978565b61094b576040517f08c379a0000000000000000000000000000000000000000000000000000000008152600401610942906124ef565b60405180910390fd5b6109757f352d05fe3946dbe49277552ba941e744d5a96d9c60bc1ba0ea5f1d3ae000f7c882610732565b50565b60006005600084815260200190815260200160002060000160008373ffffffffffffffffffffffffffffffffffffffff1673ffffffffffffffffffffffffffffffffffffffff16815260200190815260200160002060009054906101000a900460ff16905092915050565b6060600480546109f290612852565b80601f0160208091040260200160405190810160405280929190818152602001828054610a1e90612852565b8015610a6b5780601f10610a4057610100808354040283529160200191610a6b565b820191906000526020600020905b815481529060010190602001808311610a4e57829003601f168201915b5050505050905090565b6000801b81565b60008060016000610a8b611113565b73ffffffffffffffffffffffffffffffffffffffff1673ffffffffffffffffffffffffffffffffffffffff16815260200190815260200160002060008573ffffffffffffffffffffffffffffffffffffffff1673ffffffffffffffffffffffffffffffffffffffff16815260200190815260200160002054905082811015610b48576040517f08c379a0000000000000000000000000000000000000000000000000000000008152600401610b3f9061256f565b60405180910390fd5b610b5c610b53611113565b8585840361111b565b600191505092915050565b6000600654905090565b6000610b85610b7e611113565b84846112e6565b6001905092915050565b610b9c6000801b33610978565b610bdb576040517f08c379a0000000000000000000000000000000000000000000000000000000008152600401610bd29061252f565b60405180910390fd5b8060068190555050565b610c0f7f352d05fe3946dbe49277552ba941e744d5a96d9c60bc1ba0ea5f1d3ae000f7c833610978565b610c4e576040517f08c379a0000000000000000000000000000000000000000000000000000000008152600401610c459061246f565b60405180910390fd5b6000600160088054905010610c7e57610c776008805490506006546117c790919063ffffffff16565b9050610c84565b60065490505b60005b600880549050811015610cf757610cdc60088281548110610cab57610caa612911565b5b9060005260206000200160009054906101000a900473ffffffffffffffffffffffffffffffffffffffff16836117dd565b610cf060018261193d90919063ffffffff16565b9050610c87565b507fa4b533e737a64f4b187c6009af48ee835cd4768a2dcdda6f59611f8667a429084282604051610d299291906125ea565b60405180910390a150565b610d3d82610712565b610d4e81610d49611113565b611567565b610d5883836116e5565b505050565b600760003373ffffffffffffffffffffffffffffffffffffffff1673ffffffffffffffffffffffffffffffffffffffff16815260200190815260200160002060009054906101000a900460ff1615610dea576040517f08c379a0000000000000000000000000000000000000000000000000000000008152600401610de19061240f565b60405180910390fd5b610df6336006546117dd565b6008339080600181540180825580915050600190039060005260206000200160009091909190916101000a81548173ffffffffffffffffffffffffffffffffffffffff021916908373ffffffffffffffffffffffffffffffffffffffff1602179055506001600760003373ffffffffffffffffffffffffffffffffffffffff1673ffffffffffffffffffffffffffffffffffffffff16815260200190815260200160002060006101000a81548160ff0219169083151502179055507fb4dcb6dd550f27b5917ebf674899ea7046ff91790c6f9f01431617ad39819db233604051610ee09190612313565b60405180910390a1565b6000600160008473ffffffffffffffffffffffffffffffffffffffff1673ffffffffffffffffffffffffffffffffffffffff16815260200190815260200160002060008373ffffffffffffffffffffffffffffffffffffffff1673ffffffffffffffffffffffffffffffffffffffff16815260200190815260200160002054905092915050565b80610f7b336108b7565b1015610fbc576040517f08c379a0000000000000000000000000000000000000000000000000000000008152600401610fb3906124af565b60405180910390fd5b610fc63382611953565b6000600160088054905010610ff457610fed600880549050836117c790919063ffffffff16565b9050610ff8565b8190505b60005b60088054905081101561106b576110506008828154811061101f5761101e612911565b5b9060005260206000200160009054906101000a900473ffffffffffffffffffffffffffffffffffffffff16836117dd565b61106460018261193d90919063ffffffff16565b9050610ffb565b507f5738a5b61d0eb21b15b8e5fc8e3fa55d6e5af02748a3e87a3bc1e3134cf8e44c338360405161109d92919061232e565b60405180910390a15050565b60007f01ffc9a7000000000000000000000000000000000000000000000000000000007bffffffffffffffffffffffffffffffffffffffffffffffffffffffff1916827bffffffffffffffffffffffffffffffffffffffffffffffffffffffff1916149050919050565b600033905090565b600073ffffffffffffffffffffffffffffffffffffffff168373ffffffffffffffffffffffffffffffffffffffff16141561118b576040517f08c379a00000000000000000000000000000000000000000000000000000000081526004016111829061254f565b60405180910390fd5b600073ffffffffffffffffffffffffffffffffffffffff168273ffffffffffffffffffffffffffffffffffffffff1614156111fb576040517f08c379a00000000000000000000000000000000000000000000000000000000081526004016111f29061242f565b60405180910390fd5b80600160008573ffffffffffffffffffffffffffffffffffffffff1673ffffffffffffffffffffffffffffffffffffffff16815260200190815260200160002060008473ffffffffffffffffffffffffffffffffffffffff1673ffffffffffffffffffffffffffffffffffffffff168152602001908152602001600020819055508173ffffffffffffffffffffffffffffffffffffffff168373ffffffffffffffffffffffffffffffffffffffff167f8c5be1e5ebec7d5bd14f71427d1e84f3dd0314c0f7b2291e5b200ac8c7c3b925836040516112d991906125cf565b60405180910390a3505050565b600073ffffffffffffffffffffffffffffffffffffffff168373ffffffffffffffffffffffffffffffffffffffff161415611356576040517f08c379a000000000000000000000000000000000000000000000000000000000815260040161134d9061250f565b60405180910390fd5b600073ffffffffffffffffffffffffffffffffffffffff168273ffffffffffffffffffffffffffffffffffffffff1614156113c6576040517f08c379a00000000000000000000000000000000000000000000000000000000081526004016113bd906123cf565b60405180910390fd5b6113d1838383611b2a565b60008060008573ffffffffffffffffffffffffffffffffffffffff1673ffffffffffffffffffffffffffffffffffffffff16815260200190815260200160002054905081811015611457576040517f08c379a000000000000000000000000000000000000000000000000000000000815260040161144e9061244f565b60405180910390fd5b8181036000808673ffffffffffffffffffffffffffffffffffffffff1673ffffffffffffffffffffffffffffffffffffffff16815260200190815260200160002081905550816000808573ffffffffffffffffffffffffffffffffffffffff1673ffffffffffffffffffffffffffffffffffffffff16815260200190815260200160002060008282546114ea9190612655565b925050819055508273ffffffffffffffffffffffffffffffffffffffff168473ffffffffffffffffffffffffffffffffffffffff167fddf252ad1be2c89b69c2b068fc378daa952ba7f163c4a11628f55a4df523b3ef8460405161154e91906125cf565b60405180910390a3611561848484611b2f565b50505050565b6115718282610978565b611600576115968173ffffffffffffffffffffffffffffffffffffffff166014611b34565b6115a48360001c6020611b34565b6040516020016115b59291906122d9565b6040516020818303038152906040526040517f08c379a00000000000000000000000000000000000000000000000000000000081526004016115f7919061238d565b60405180910390fd5b5050565b61160e8282610978565b6116e15760016005600084815260200190815260200160002060000160008373ffffffffffffffffffffffffffffffffffffffff1673ffffffffffffffffffffffffffffffffffffffff16815260200190815260200160002060006101000a81548160ff021916908315150217905550611686611113565b73ffffffffffffffffffffffffffffffffffffffff168173ffffffffffffffffffffffffffffffffffffffff16837f2f8788117e7eff1d82e926ec794901d17c78024a50270940304540a733656f0d60405160405180910390a45b5050565b6116ef8282610978565b156117c35760006005600084815260200190815260200160002060000160008373ffffffffffffffffffffffffffffffffffffffff1673ffffffffffffffffffffffffffffffffffffffff16815260200190815260200160002060006101000a81548160ff021916908315150217905550611768611113565b73ffffffffffffffffffffffffffffffffffffffff168173ffffffffffffffffffffffffffffffffffffffff16837ff6391f5c32d9c69d2a47ea670b442974b53935d1edc7fd64eb21e047a839171b60405160405180910390a45b5050565b600081836117d591906126ab565b905092915050565b600073ffffffffffffffffffffffffffffffffffffffff168273ffffffffffffffffffffffffffffffffffffffff16141561184d576040517f08c379a0000000000000000000000000000000000000000000000000000000008152600401611844906125af565b60405180910390fd5b61185960008383611b2a565b806002600082825461186b9190612655565b92505081905550806000808473ffffffffffffffffffffffffffffffffffffffff1673ffffffffffffffffffffffffffffffffffffffff16815260200190815260200160002060008282546118c09190612655565b925050819055508173ffffffffffffffffffffffffffffffffffffffff16600073ffffffffffffffffffffffffffffffffffffffff167fddf252ad1be2c89b69c2b068fc378daa952ba7f163c4a11628f55a4df523b3ef8360405161192591906125cf565b60405180910390a361193960008383611b2f565b5050565b6000818361194b9190612655565b905092915050565b600073ffffffffffffffffffffffffffffffffffffffff168273ffffffffffffffffffffffffffffffffffffffff1614156119c3576040517f08c379a00000000000000000000000000000000000000000000000000000000081526004016119ba906124cf565b60405180910390fd5b6119cf82600083611b2a565b60008060008473ffffffffffffffffffffffffffffffffffffffff1673ffffffffffffffffffffffffffffffffffffffff16815260200190815260200160002054905081811015611a55576040517f08c379a0000000000000000000000000000000000000000000000000000000008152600401611a4c906123ef565b60405180910390fd5b8181036000808573ffffffffffffffffffffffffffffffffffffffff1673ffffffffffffffffffffffffffffffffffffffff168152602001908152602001600020819055508160026000828254611aac9190612736565b92505081905550600073ffffffffffffffffffffffffffffffffffffffff168373ffffffffffffffffffffffffffffffffffffffff167fddf252ad1be2c89b69c2b068fc378daa952ba7f163c4a11628f55a4df523b3ef84604051611b1191906125cf565b60405180910390a3611b2583600084611b2f565b505050565b505050565b505050565b606060006002836002611b4791906126dc565b611b519190612655565b67ffffffffffffffff811115611b6a57611b69612940565b5b6040519080825280601f01601f191660200182016040528015611b9c5781602001600182028036833780820191505090505b5090507f300000000000000000000000000000000000000000000000000000000000000081600081518110611bd457611bd3612911565b5b60200101907effffffffffffffffffffffffffffffffffffffffffffffffffffffffffffff1916908160001a9053507f780000000000000000000000000000000000000000000000000000000000000081600181518110611c3857611c37612911565b5b60200101907effffffffffffffffffffffffffffffffffffffffffffffffffffffffffffff1916908160001a90535060006001846002611c7891906126dc565b611c829190612655565b90505b6001811115611d22577f3031323334353637383961626364656600000000000000000000000000000000600f861660108110611cc457611cc3612911565b5b1a60f81b828281518110611cdb57611cda612911565b5b60200101907effffffffffffffffffffffffffffffffffffffffffffffffffffffffffffff1916908160001a905350600485901c945080611d1b90612828565b9050611c85565b5060008414611d66576040517f08c379a0000000000000000000000000000000000000000000000000000000008152600401611d5d906123af565b60405180910390fd5b8091505092915050565b600081359050611d7f81612eca565b92915050565b600081359050611d9481612ee1565b92915050565b600081359050611da981612ef8565b92915050565b600081359050611dbe81612f0f565b92915050565b600060208284031215611dda57611dd961296f565b5b6000611de884828501611d70565b91505092915050565b60008060408385031215611e0857611e0761296f565b5b6000611e1685828601611d70565b9250506020611e2785828601611d70565b9150509250929050565b600080600060608486031215611e4a57611e4961296f565b5b6000611e5886828701611d70565b9350506020611e6986828701611d70565b9250506040611e7a86828701611daf565b9150509250925092565b60008060408385031215611e9b57611e9a61296f565b5b6000611ea985828601611d70565b9250506020611eba85828601611daf565b9150509250929050565b600060208284031215611eda57611ed961296f565b5b6000611ee884828501611d85565b91505092915050565b60008060408385031215611f0857611f0761296f565b5b6000611f1685828601611d85565b9250506020611f2785828601611d70565b9150509250929050565b600060208284031215611f4757611f4661296f565b5b6000611f5584828501611d9a565b91505092915050565b600060208284031215611f7457611f7361296f565b5b6000611f8284828501611daf565b91505092915050565b611f948161276a565b82525050565b611fa38161277c565b82525050565b611fb281612788565b82525050565b6000611fc38261262e565b611fcd8185612639565b9350611fdd8185602086016127f5565b611fe681612974565b840191505092915050565b6000611ffc8261262e565b612006818561264a565b93506120168185602086016127f5565b80840191505092915050565b600061202f602083612639565b915061203a82612985565b602082019050919050565b6000612052602383612639565b915061205d826129ae565b604082019050919050565b6000612075602283612639565b9150612080826129fd565b604082019050919050565b6000612098603083612639565b91506120a382612a4c565b604082019050919050565b60006120bb602283612639565b91506120c682612a9b565b604082019050919050565b60006120de602683612639565b91506120e982612aea565b604082019050919050565b6000612101602f83612639565b915061210c82612b39565b604082019050919050565b6000612124602883612639565b915061212f82612b88565b604082019050919050565b6000612147602683612639565b915061215282612bd7565b604082019050919050565b600061216a602183612639565b915061217582612c26565b604082019050919050565b600061218d602483612639565b915061219882612c75565b604082019050919050565b60006121b0602583612639565b91506121bb82612cc4565b604082019050919050565b60006121d3602e83612639565b91506121de82612d13565b604082019050919050565b60006121f6602483612639565b915061220182612d62565b604082019050919050565b600061221960178361264a565b915061222482612db1565b601782019050919050565b600061223c602583612639565b915061224782612dda565b604082019050919050565b600061225f60118361264a565b915061226a82612e29565b601182019050919050565b6000612282602f83612639565b915061228d82612e52565b604082019050919050565b60006122a5601f83612639565b91506122b082612ea1565b602082019050919050565b6122c4816127de565b82525050565b6122d3816127e8565b82525050565b60006122e48261220c565b91506122f08285611ff1565b91506122fb82612252565b91506123078284611ff1565b91508190509392505050565b60006020820190506123286000830184611f8b565b92915050565b60006040820190506123436000830185611f8b565b61235060208301846122bb565b9392505050565b600060208201905061236c6000830184611f9a565b92915050565b60006020820190506123876000830184611fa9565b92915050565b600060208201905081810360008301526123a78184611fb8565b905092915050565b600060208201905081810360008301526123c881612022565b9050919050565b600060208201905081810360008301526123e881612045565b9050919050565b6000602082019050818103600083015261240881612068565b9050919050565b600060208201905081810360008301526124288161208b565b9050919050565b60006020820190508181036000830152612448816120ae565b9050919050565b60006020820190508181036000830152612468816120d1565b9050919050565b60006020820190508181036000830152612488816120f4565b9050919050565b600060208201905081810360008301526124a881612117565b9050919050565b600060208201905081810360008301526124c88161213a565b9050919050565b600060208201905081810360008301526124e88161215d565b9050919050565b6000602082019050818103600083015261250881612180565b9050919050565b60006020820190508181036000830152612528816121a3565b9050919050565b60006020820190508181036000830152612548816121c6565b9050919050565b60006020820190508181036000830152612568816121e9565b9050919050565b600060208201905081810360008301526125888161222f565b9050919050565b600060208201905081810360008301526125a881612275565b9050919050565b600060208201905081810360008301526125c881612298565b9050919050565b60006020820190506125e460008301846122bb565b92915050565b60006040820190506125ff60008301856122bb565b61260c60208301846122bb565b9392505050565b600060208201905061262860008301846122ca565b92915050565b600081519050919050565b600082825260208201905092915050565b600081905092915050565b6000612660826127de565b915061266b836127de565b9250827fffffffffffffffffffffffffffffffffffffffffffffffffffffffffffffffff038211156126a05761269f612884565b5b828201905092915050565b60006126b6826127de565b91506126c1836127de565b9250826126d1576126d06128b3565b5b828204905092915050565b60006126e7826127de565b91506126f2836127de565b9250817fffffffffffffffffffffffffffffffffffffffffffffffffffffffffffffffff048311821515161561272b5761272a612884565b5b828202905092915050565b6000612741826127de565b915061274c836127de565b92508282101561275f5761275e612884565b5b828203905092915050565b6000612775826127be565b9050919050565b60008115159050919050565b6000819050919050565b60007fffffffff0000000000000000000000000000000000000000000000000000000082169050919050565b600073ffffffffffffffffffffffffffffffffffffffff82169050919050565b6000819050919050565b600060ff82169050919050565b60005b838110156128135780820151818401526020810190506127f8565b83811115612822576000848401525b50505050565b6000612833826127de565b9150600082141561284757612846612884565b5b600182039050919050565b6000600282049050600182168061286a57607f821691505b6020821081141561287e5761287d6128e2565b5b50919050565b7f4e487b7100000000000000000000000000000000000000000000000000000000600052601160045260246000fd5b7f4e487b7100000000000000000000000000000000000000000000000000000000600052601260045260246000fd5b7f4e487b7100000000000000000000000000000000000000000000000000000000600052602260045260246000fd5b7f4e487b7100000000000000000000000000000000000000000000000000000000600052603260045260246000fd5b7f4e487b7100000000000000000000000000000000000000000000000000000000600052604160045260246000fd5b600080fd5b6000601f19601f8301169050919050565b7f537472696e67733a20686578206c656e67746820696e73756666696369656e74600082015250565b7f45524332303a207472616e7366657220746f20746865207a65726f206164647260008201527f6573730000000000000000000000000000000000000000000000000000000000602082015250565b7f45524332303a206275726e20616d6f756e7420657863656564732062616c616e60008201527f6365000000000000000000000000000000000000000000000000000000000000602082015250565b7f4572726f723a205468697320616464726573732068617320616c72656164792060008201527f67656e65726174656420736d6f6b652e00000000000000000000000000000000602082015250565b7f45524332303a20617070726f766520746f20746865207a65726f20616464726560008201527f7373000000000000000000000000000000000000000000000000000000000000602082015250565b7f45524332303a207472616e7366657220616d6f756e742065786365656473206260008201527f616c616e63650000000000000000000000000000000000000000000000000000602082015250565b7f4572726f723a204f6e6c7920616e206f7261636c652063616e2063616c6c206160008201527f20776f6f207765646e65736461792e0000000000000000000000000000000000602082015250565b7f45524332303a207472616e7366657220616d6f756e742065786365656473206160008201527f6c6c6f77616e6365000000000000000000000000000000000000000000000000602082015250565b7f45524332303a205472616e7366657220616d6f756e742065786365656473206260008201527f616c616e63650000000000000000000000000000000000000000000000000000602082015250565b7f45524332303a206275726e2066726f6d20746865207a65726f2061646472657360008201527f7300000000000000000000000000000000000000000000000000000000000000602082015250565b7f4572726f723a204f6e6c7920616e2061646d696e2063616e207365742061207260008201527f6f6c652e00000000000000000000000000000000000000000000000000000000602082015250565b7f45524332303a207472616e736665722066726f6d20746865207a65726f20616460008201527f6472657373000000000000000000000000000000000000000000000000000000602082015250565b7f4572726f723a204f6e6c7920746865206f776e65722063616e2073657420746860008201527f65206d696e7420616d6f756e742e000000000000000000000000000000000000602082015250565b7f45524332303a20617070726f76652066726f6d20746865207a65726f2061646460008201527f7265737300000000000000000000000000000000000000000000000000000000602082015250565b7f416363657373436f6e74726f6c3a206163636f756e7420000000000000000000600082015250565b7f45524332303a2064656372656173656420616c6c6f77616e63652062656c6f7760008201527f207a65726f000000000000000000000000000000000000000000000000000000602082015250565b7f206973206d697373696e6720726f6c6520000000000000000000000000000000600082015250565b7f416363657373436f6e74726f6c3a2063616e206f6e6c792072656e6f756e636560008201527f20726f6c657320666f722073656c660000000000000000000000000000000000602082015250565b7f45524332303a206d696e7420746f20746865207a65726f206164647265737300600082015250565b612ed38161276a565b8114612ede57600080fd5b50565b612eea81612788565b8114612ef557600080fd5b50565b612f0181612792565b8114612f0c57600080fd5b50565b612f18816127de565b8114612f2357600080fd5b5056fea26469706673582212201df61bc4ed996d43ab082faa354556e8d27d520e0e68aab72cfe3cc97cf613f764736f6c63430008070033",
  "immutableReferences": {},
  "source": "//  contracts/SmokeToken.sol\r\n//  SPDX-License-Identifier: MIT\r\npragma solidity >=0.8.7;\r\n\r\nimport \"@openzeppelin/contracts/token/ERC20/ERC20.sol\";\r\nimport \"@openzeppelin/contracts/access/Ownable.sol\";\r\nimport \"@openzeppelin/contracts/utils/math/SafeMath.sol\";\r\nimport \"@openzeppelin/contracts/access/AccessControl.sol\";\r\n\r\n/// @title SmokeToken for a private discord group.\r\n/// @author adamdire\r\n/// @notice A token to use between friends as a meme / form of validation of our ranking.\r\ncontract SmokeToken is ERC20, AccessControl {\r\n    using SafeMath for uint256;\r\n\r\n    // Roles\r\n    bytes32 public constant ORACLE = keccak256(\"ORACLE\");\r\n\r\n    //  Variables\r\n    uint256 private _mintAmount = 1092 * 10**decimals();\r\n    mapping(address => bool) private _hasGeneratedSmoke;\r\n    address[] private _members;\r\n\r\n    //  Events\r\n    event Wooed(address address_, uint256 amount);\r\n    event NewMember(address address_);\r\n    event WooWednesday(uint256 timestamp, uint256 individualAmount);\r\n\r\n    constructor() ERC20(\"SmokeToken\", \"SMKE\") {\r\n        _setupRole(DEFAULT_ADMIN_ROLE, msg.sender);\r\n    }\r\n\r\n    function generateSmoke() external {\r\n        require(\r\n            !_hasGeneratedSmoke[msg.sender],\r\n            \"Error: This address has already generated smoke.\"\r\n        );\r\n        _mint(msg.sender, _mintAmount);\r\n        _members.push(msg.sender);\r\n        _hasGeneratedSmoke[msg.sender] = true;\r\n        emit NewMember(msg.sender);\r\n    }\r\n\r\n    function woo(uint256 amount) external {\r\n        require(\r\n            balanceOf(msg.sender) >= amount,\r\n            \"ERC20: Transfer amount exceeds balance\"\r\n        );\r\n        _burn(msg.sender, amount);\r\n\r\n        uint256 individualAmount;\r\n        if (_members.length >= 1) {\r\n            individualAmount = amount.div(_members.length);\r\n        } else {\r\n            individualAmount = amount;\r\n        }\r\n\r\n        for (uint256 i = 0; i < _members.length; i = i.add(1)) {\r\n            _mint(_members[i], individualAmount);\r\n        }\r\n\r\n        emit Wooed(msg.sender, amount);\r\n    }\r\n\r\n    function wooWednesday() external {\r\n        require(\r\n            hasRole(ORACLE, msg.sender),\r\n            \"Error: Only an oracle can call a woo wednesday.\"\r\n        );\r\n\r\n        uint256 individualAmount;\r\n        if (_members.length >= 1) {\r\n            individualAmount = _mintAmount.div(_members.length);\r\n        } else {\r\n            individualAmount = _mintAmount;\r\n        }\r\n\r\n        for (uint256 i = 0; i < _members.length; i = i.add(1)) {\r\n            _mint(_members[i], individualAmount);\r\n        }\r\n\r\n        emit WooWednesday(block.timestamp, individualAmount);\r\n    }\r\n\r\n    function setMintAmount(uint256 mintAmount_) external {\r\n        require(\r\n            hasRole(DEFAULT_ADMIN_ROLE, msg.sender),\r\n            \"Error: Only the owner can set the mint amount.\"\r\n        );\r\n        _mintAmount = mintAmount_;\r\n    }\r\n\r\n    function getMintAmount() external view returns (uint256) {\r\n        return _mintAmount;\r\n    }\r\n\r\n    function setOracle(address address_) external {\r\n        require(\r\n            hasRole(DEFAULT_ADMIN_ROLE, msg.sender),\r\n            \"Error: Only an admin can set a role.\"\r\n        );\r\n\r\n        grantRole(ORACLE, address_);\r\n    }\r\n}\r\n",
  "sourcePath": "C:\\Users\\adamd\\development\\SmokeCoin\\smokeToken\\contracts\\SmokeToken.sol",
  "compiler": {
    "name": "solc",
    "version": "0.8.7+commit.e28d00a7.Emscripten.clang"
  },
  "schemaVersion": "3.4.3",
  "updatedAt": "2021-08-23T01:02:13.518Z",
  "devdoc": {
    "author": "adamdire",
    "kind": "dev",
    "methods": {
      "allowance(address,address)": {
        "details": "See {IERC20-allowance}."
      },
      "approve(address,uint256)": {
        "details": "See {IERC20-approve}. Requirements: - `spender` cannot be the zero address."
      },
      "balanceOf(address)": {
        "details": "See {IERC20-balanceOf}."
      },
      "decimals()": {
        "details": "Returns the number of decimals used to get its user representation. For example, if `decimals` equals `2`, a balance of `505` tokens should be displayed to a user as `5.05` (`505 / 10 ** 2`). Tokens usually opt for a value of 18, imitating the relationship between Ether and Wei. This is the value {ERC20} uses, unless this function is overridden; NOTE: This information is only used for _display_ purposes: it in no way affects any of the arithmetic of the contract, including {IERC20-balanceOf} and {IERC20-transfer}."
      },
      "decreaseAllowance(address,uint256)": {
        "details": "Atomically decreases the allowance granted to `spender` by the caller. This is an alternative to {approve} that can be used as a mitigation for problems described in {IERC20-approve}. Emits an {Approval} event indicating the updated allowance. Requirements: - `spender` cannot be the zero address. - `spender` must have allowance for the caller of at least `subtractedValue`."
      },
      "getRoleAdmin(bytes32)": {
        "details": "Returns the admin role that controls `role`. See {grantRole} and {revokeRole}. To change a role's admin, use {_setRoleAdmin}."
      },
      "grantRole(bytes32,address)": {
        "details": "Grants `role` to `account`. If `account` had not been already granted `role`, emits a {RoleGranted} event. Requirements: - the caller must have ``role``'s admin role."
      },
      "hasRole(bytes32,address)": {
        "details": "Returns `true` if `account` has been granted `role`."
      },
      "increaseAllowance(address,uint256)": {
        "details": "Atomically increases the allowance granted to `spender` by the caller. This is an alternative to {approve} that can be used as a mitigation for problems described in {IERC20-approve}. Emits an {Approval} event indicating the updated allowance. Requirements: - `spender` cannot be the zero address."
      },
      "name()": {
        "details": "Returns the name of the token."
      },
      "renounceRole(bytes32,address)": {
        "details": "Revokes `role` from the calling account. Roles are often managed via {grantRole} and {revokeRole}: this function's purpose is to provide a mechanism for accounts to lose their privileges if they are compromised (such as when a trusted device is misplaced). If the calling account had been granted `role`, emits a {RoleRevoked} event. Requirements: - the caller must be `account`."
      },
      "revokeRole(bytes32,address)": {
        "details": "Revokes `role` from `account`. If `account` had been granted `role`, emits a {RoleRevoked} event. Requirements: - the caller must have ``role``'s admin role."
      },
      "supportsInterface(bytes4)": {
        "details": "See {IERC165-supportsInterface}."
      },
      "symbol()": {
        "details": "Returns the symbol of the token, usually a shorter version of the name."
      },
      "totalSupply()": {
        "details": "See {IERC20-totalSupply}."
      },
      "transfer(address,uint256)": {
        "details": "See {IERC20-transfer}. Requirements: - `recipient` cannot be the zero address. - the caller must have a balance of at least `amount`."
      },
      "transferFrom(address,address,uint256)": {
        "details": "See {IERC20-transferFrom}. Emits an {Approval} event indicating the updated allowance. This is not required by the EIP. See the note at the beginning of {ERC20}. Requirements: - `sender` and `recipient` cannot be the zero address. - `sender` must have a balance of at least `amount`. - the caller must have allowance for ``sender``'s tokens of at least `amount`."
      }
    },
    "title": "SmokeToken for a private discord group.",
    "version": 1
  },
  "userdoc": {
    "kind": "user",
    "methods": {},
    "notice": "A token to use between friends as a meme / form of validation of our ranking.",
    "version": 1
  }
}