{
  "contractName": "SmokeTokenUpgradeable",
  "abi": [
    {
      "anonymous": false,
      "inputs": [
        {
          "indexed": true,
          "internalType": "address",
          "name": "owner",
          "type": "address"
        },
        {
          "indexed": true,
          "internalType": "address",
          "name": "spender",
          "type": "address"
        },
        {
          "indexed": false,
          "internalType": "uint256",
          "name": "value",
          "type": "uint256"
        }
      ],
      "name": "Approval",
      "type": "event"
    },
    {
      "anonymous": false,
      "inputs": [
        {
          "indexed": false,
          "internalType": "address",
          "name": "address_",
          "type": "address"
        }
      ],
      "name": "NewMember",
      "type": "event"
    },
    {
      "anonymous": false,
      "inputs": [
        {
          "indexed": true,
          "internalType": "bytes32",
          "name": "role",
          "type": "bytes32"
        },
        {
          "indexed": true,
          "internalType": "bytes32",
          "name": "previousAdminRole",
          "type": "bytes32"
        },
        {
          "indexed": true,
          "internalType": "bytes32",
          "name": "newAdminRole",
          "type": "bytes32"
        }
      ],
      "name": "RoleAdminChanged",
      "type": "event"
    },
    {
      "anonymous": false,
      "inputs": [
        {
          "indexed": true,
          "internalType": "bytes32",
          "name": "role",
          "type": "bytes32"
        },
        {
          "indexed": true,
          "internalType": "address",
          "name": "account",
          "type": "address"
        },
        {
          "indexed": true,
          "internalType": "address",
          "name": "sender",
          "type": "address"
        }
      ],
      "name": "RoleGranted",
      "type": "event"
    },
    {
      "anonymous": false,
      "inputs": [
        {
          "indexed": true,
          "internalType": "bytes32",
          "name": "role",
          "type": "bytes32"
        },
        {
          "indexed": true,
          "internalType": "address",
          "name": "account",
          "type": "address"
        },
        {
          "indexed": true,
          "internalType": "address",
          "name": "sender",
          "type": "address"
        }
      ],
      "name": "RoleRevoked",
      "type": "event"
    },
    {
      "anonymous": false,
      "inputs": [
        {
          "indexed": true,
          "internalType": "address",
          "name": "from",
          "type": "address"
        },
        {
          "indexed": true,
          "internalType": "address",
          "name": "to",
          "type": "address"
        },
        {
          "indexed": false,
          "internalType": "uint256",
          "name": "value",
          "type": "uint256"
        }
      ],
      "name": "Transfer",
      "type": "event"
    },
    {
      "anonymous": false,
      "inputs": [
        {
          "indexed": false,
          "internalType": "uint256",
          "name": "timestamp",
          "type": "uint256"
        },
        {
          "indexed": false,
          "internalType": "uint256",
          "name": "individualAmount",
          "type": "uint256"
        }
      ],
      "name": "WooWednesday",
      "type": "event"
    },
    {
      "anonymous": false,
      "inputs": [
        {
          "indexed": false,
          "internalType": "address",
          "name": "address_",
          "type": "address"
        },
        {
          "indexed": false,
          "internalType": "uint256",
          "name": "amount",
          "type": "uint256"
        }
      ],
      "name": "Wooed",
      "type": "event"
    },
    {
      "inputs": [],
      "name": "DEFAULT_ADMIN_ROLE",
      "outputs": [
        {
          "internalType": "bytes32",
          "name": "",
          "type": "bytes32"
        }
      ],
      "stateMutability": "view",
      "type": "function",
      "constant": true
    },
    {
      "inputs": [],
      "name": "ORACLE",
      "outputs": [
        {
          "internalType": "bytes32",
          "name": "",
          "type": "bytes32"
        }
      ],
      "stateMutability": "view",
      "type": "function",
      "constant": true
    },
    {
      "inputs": [
        {
          "internalType": "address",
          "name": "owner",
          "type": "address"
        },
        {
          "internalType": "address",
          "name": "spender",
          "type": "address"
        }
      ],
      "name": "allowance",
      "outputs": [
        {
          "internalType": "uint256",
          "name": "",
          "type": "uint256"
        }
      ],
      "stateMutability": "view",
      "type": "function",
      "constant": true
    },
    {
      "inputs": [
        {
          "internalType": "address",
          "name": "spender",
          "type": "address"
        },
        {
          "internalType": "uint256",
          "name": "amount",
          "type": "uint256"
        }
      ],
      "name": "approve",
      "outputs": [
        {
          "internalType": "bool",
          "name": "",
          "type": "bool"
        }
      ],
      "stateMutability": "nonpayable",
      "type": "function"
    },
    {
      "inputs": [
        {
          "internalType": "address",
          "name": "account",
          "type": "address"
        }
      ],
      "name": "balanceOf",
      "outputs": [
        {
          "internalType": "uint256",
          "name": "",
          "type": "uint256"
        }
      ],
      "stateMutability": "view",
      "type": "function",
      "constant": true
    },
    {
      "inputs": [],
      "name": "decimals",
      "outputs": [
        {
          "internalType": "uint8",
          "name": "",
          "type": "uint8"
        }
      ],
      "stateMutability": "view",
      "type": "function",
      "constant": true
    },
    {
      "inputs": [
        {
          "internalType": "address",
          "name": "spender",
          "type": "address"
        },
        {
          "internalType": "uint256",
          "name": "subtractedValue",
          "type": "uint256"
        }
      ],
      "name": "decreaseAllowance",
      "outputs": [
        {
          "internalType": "bool",
          "name": "",
          "type": "bool"
        }
      ],
      "stateMutability": "nonpayable",
      "type": "function"
    },
    {
      "inputs": [
        {
          "internalType": "bytes32",
          "name": "role",
          "type": "bytes32"
        }
      ],
      "name": "getRoleAdmin",
      "outputs": [
        {
          "internalType": "bytes32",
          "name": "",
          "type": "bytes32"
        }
      ],
      "stateMutability": "view",
      "type": "function",
      "constant": true
    },
    {
      "inputs": [
        {
          "internalType": "bytes32",
          "name": "role",
          "type": "bytes32"
        },
        {
          "internalType": "address",
          "name": "account",
          "type": "address"
        }
      ],
      "name": "grantRole",
      "outputs": [],
      "stateMutability": "nonpayable",
      "type": "function"
    },
    {
      "inputs": [
        {
          "internalType": "bytes32",
          "name": "role",
          "type": "bytes32"
        },
        {
          "internalType": "address",
          "name": "account",
          "type": "address"
        }
      ],
      "name": "hasRole",
      "outputs": [
        {
          "internalType": "bool",
          "name": "",
          "type": "bool"
        }
      ],
      "stateMutability": "view",
      "type": "function",
      "constant": true
    },
    {
      "inputs": [
        {
          "internalType": "address",
          "name": "spender",
          "type": "address"
        },
        {
          "internalType": "uint256",
          "name": "addedValue",
          "type": "uint256"
        }
      ],
      "name": "increaseAllowance",
      "outputs": [
        {
          "internalType": "bool",
          "name": "",
          "type": "bool"
        }
      ],
      "stateMutability": "nonpayable",
      "type": "function"
    },
    {
      "inputs": [],
      "name": "name",
      "outputs": [
        {
          "internalType": "string",
          "name": "",
          "type": "string"
        }
      ],
      "stateMutability": "view",
      "type": "function",
      "constant": true
    },
    {
      "inputs": [
        {
          "internalType": "bytes32",
          "name": "role",
          "type": "bytes32"
        },
        {
          "internalType": "address",
          "name": "account",
          "type": "address"
        }
      ],
      "name": "renounceRole",
      "outputs": [],
      "stateMutability": "nonpayable",
      "type": "function"
    },
    {
      "inputs": [
        {
          "internalType": "bytes32",
          "name": "role",
          "type": "bytes32"
        },
        {
          "internalType": "address",
          "name": "account",
          "type": "address"
        }
      ],
      "name": "revokeRole",
      "outputs": [],
      "stateMutability": "nonpayable",
      "type": "function"
    },
    {
      "inputs": [
        {
          "internalType": "bytes4",
          "name": "interfaceId",
          "type": "bytes4"
        }
      ],
      "name": "supportsInterface",
      "outputs": [
        {
          "internalType": "bool",
          "name": "",
          "type": "bool"
        }
      ],
      "stateMutability": "view",
      "type": "function",
      "constant": true
    },
    {
      "inputs": [],
      "name": "symbol",
      "outputs": [
        {
          "internalType": "string",
          "name": "",
          "type": "string"
        }
      ],
      "stateMutability": "view",
      "type": "function",
      "constant": true
    },
    {
      "inputs": [],
      "name": "totalSupply",
      "outputs": [
        {
          "internalType": "uint256",
          "name": "",
          "type": "uint256"
        }
      ],
      "stateMutability": "view",
      "type": "function",
      "constant": true
    },
    {
      "inputs": [
        {
          "internalType": "address",
          "name": "recipient",
          "type": "address"
        },
        {
          "internalType": "uint256",
          "name": "amount",
          "type": "uint256"
        }
      ],
      "name": "transfer",
      "outputs": [
        {
          "internalType": "bool",
          "name": "",
          "type": "bool"
        }
      ],
      "stateMutability": "nonpayable",
      "type": "function"
    },
    {
      "inputs": [
        {
          "internalType": "address",
          "name": "sender",
          "type": "address"
        },
        {
          "internalType": "address",
          "name": "recipient",
          "type": "address"
        },
        {
          "internalType": "uint256",
          "name": "amount",
          "type": "uint256"
        }
      ],
      "name": "transferFrom",
      "outputs": [
        {
          "internalType": "bool",
          "name": "",
          "type": "bool"
        }
      ],
      "stateMutability": "nonpayable",
      "type": "function"
    },
    {
      "inputs": [],
      "name": "initialize",
      "outputs": [],
      "stateMutability": "nonpayable",
      "type": "function"
    },
    {
      "inputs": [],
      "name": "generateSmoke",
      "outputs": [],
      "stateMutability": "nonpayable",
      "type": "function"
    },
    {
      "inputs": [
        {
          "internalType": "uint256",
          "name": "amount",
          "type": "uint256"
        }
      ],
      "name": "woo",
      "outputs": [],
      "stateMutability": "nonpayable",
      "type": "function"
    },
    {
      "inputs": [],
      "name": "wooWednesday",
      "outputs": [],
      "stateMutability": "nonpayable",
      "type": "function"
    },
    {
      "inputs": [
        {
          "internalType": "uint256",
          "name": "mintAmount_",
          "type": "uint256"
        }
      ],
      "name": "setMintAmount",
      "outputs": [],
      "stateMutability": "nonpayable",
      "type": "function"
    },
    {
      "inputs": [],
      "name": "getMintAmount",
      "outputs": [
        {
          "internalType": "uint256",
          "name": "",
          "type": "uint256"
        }
      ],
      "stateMutability": "view",
      "type": "function",
      "constant": true
    },
    {
      "inputs": [
        {
          "internalType": "uint256",
          "name": "distributionAmount_",
          "type": "uint256"
        }
      ],
      "name": "setDistributionAmount",
      "outputs": [],
      "stateMutability": "nonpayable",
      "type": "function"
    },
    {
      "inputs": [],
      "name": "getDistributionAmount",
      "outputs": [
        {
          "internalType": "uint256",
          "name": "",
          "type": "uint256"
        }
      ],
      "stateMutability": "view",
      "type": "function",
      "constant": true
    },
    {
      "inputs": [
        {
          "internalType": "address",
          "name": "address_",
          "type": "address"
        }
      ],
      "name": "setOracle",
      "outputs": [],
      "stateMutability": "nonpayable",
      "type": "function"
    },
    {
      "inputs": [
        {
          "internalType": "address",
          "name": "_address",
          "type": "address"
        }
      ],
      "name": "hasGeneratedSmoke",
      "outputs": [
        {
          "internalType": "bool",
          "name": "",
          "type": "bool"
        }
      ],
      "stateMutability": "view",
      "type": "function",
      "constant": true
    },
    {
      "inputs": [],
      "name": "membersCount",
      "outputs": [
        {
          "internalType": "uint256",
          "name": "",
          "type": "uint256"
        }
      ],
      "stateMutability": "view",
      "type": "function",
      "constant": true
    }
  ],
  "bytecode": "0x608060405234801561001057600080fd5b50613b94806100206000396000f3fe608060405234801561001057600080fd5b50600436106101da5760003560e01c80638129fc1c11610104578063a9059cbb116100a2578063db6baad011610071578063db6baad01461056d578063dd62ed3e14610577578063eb660e77146105a7578063fc8286fd146105c3576101da565b8063a9059cbb146104fb578063c7cd997f1461052b578063cd8ceee714610547578063d547741f14610551576101da565b806395d89b41116100de57806395d89b4114610471578063a217fddf1461048f578063a457c2d7146104ad578063a8995deb146104dd576101da565b80638129fc1c146104195780638679d15b1461042357806391d1485414610441576101da565b80632f2ff15d1161017c578063395093511161014b578063395093511461036d5780635d7a06a61461039d57806370a08231146103cd5780637adbf973146103fd576101da565b80632f2ff15d146102f9578063313ce5671461031557806336568abe1461033357806338013f021461034f576101da565b806318160ddd116101b857806318160ddd1461025d57806323b872dd1461027b578063248a9ca3146102ab578063297f9af0146102db576101da565b806301ffc9a7146101df57806306fdde031461020f578063095ea7b31461022d575b600080fd5b6101f960048036038101906101f491906128c7565b6105df565b6040516102069190612d33565b60405180910390f35b610217610659565b6040516102249190612d69565b60405180910390f35b6102476004803603810190610242919061281a565b6106eb565b6040516102549190612d33565b60405180910390f35b610265610709565b6040516102729190612feb565b60405180910390f35b610295600480360381019061029091906127c7565b610713565b6040516102a29190612d33565b60405180910390f35b6102c560048036038101906102c0919061285a565b61080b565b6040516102d29190612d4e565b60405180910390f35b6102e361082b565b6040516102f09190612feb565b60405180910390f35b610313600480360381019061030e9190612887565b610838565b005b61031d610861565b60405161032a919061302f565b60405180910390f35b61034d60048036038101906103489190612887565b61086a565b005b6103576108ed565b6040516103649190612d4e565b60405180910390f35b6103876004803603810190610382919061281a565b610911565b6040516103949190612d33565b60405180910390f35b6103b760048036038101906103b2919061275a565b6109bd565b6040516103c49190612d33565b60405180910390f35b6103e760048036038101906103e2919061275a565b610a13565b6040516103f49190612feb565b60405180910390f35b6104176004803603810190610412919061275a565b610a5c565b005b610421610ad5565b005b61042b610c85565b6040516104389190612feb565b60405180910390f35b61045b60048036038101906104569190612887565b610c8f565b6040516104689190612d33565b60405180910390f35b610479610cfa565b6040516104869190612d69565b60405180910390f35b610497610d8c565b6040516104a49190612d4e565b60405180910390f35b6104c760048036038101906104c2919061281a565b610d93565b6040516104d49190612d33565b60405180910390f35b6104e5610e7e565b6040516104f29190612feb565b60405180910390f35b6105156004803603810190610510919061281a565b610e88565b6040516105229190612d33565b60405180910390f35b610545600480360381019061054091906128f4565b610ea6565b005b61054f610efc565b005b61056b60048036038101906105669190612887565b61104b565b005b610575611074565b005b610591600480360381019061058c9190612787565b611201565b60405161059e9190612feb565b60405180910390f35b6105c160048036038101906105bc91906128f4565b611288565b005b6105dd60048036038101906105d891906128f4565b6113c0565b005b60007f7965db0b000000000000000000000000000000000000000000000000000000007bffffffffffffffffffffffffffffffffffffffffffffffffffffffff1916827bffffffffffffffffffffffffffffffffffffffffffffffffffffffff19161480610652575061065182611416565b5b9050919050565b606060368054610668906133df565b80601f0160208091040260200160405190810160405280929190818152602001828054610694906133df565b80156106e15780601f106106b6576101008083540402835291602001916106e1565b820191906000526020600020905b8154815290600101906020018083116106c457829003601f168201915b5050505050905090565b60006106ff6106f8611480565b8484611488565b6001905092915050565b6000603554905090565b6000610720848484611653565b6000603460008673ffffffffffffffffffffffffffffffffffffffff1673ffffffffffffffffffffffffffffffffffffffff168152602001908152602001600020600061076b611480565b73ffffffffffffffffffffffffffffffffffffffff1673ffffffffffffffffffffffffffffffffffffffff168152602001908152602001600020549050828110156107eb576040517f08c379a00000000000000000000000000000000000000000000000000000000081526004016107e290612eab565b60405180910390fd5b6107ff856107f7611480565b858403611488565b60019150509392505050565b600060976000838152602001908152602001600020600101549050919050565b600060cc80549050905090565b6108418261080b565b6108528161084d611480565b6118d7565b61085c8383611974565b505050565b60006012905090565b610872611480565b73ffffffffffffffffffffffffffffffffffffffff168173ffffffffffffffffffffffffffffffffffffffff16146108df576040517f08c379a00000000000000000000000000000000000000000000000000000000081526004016108d690612fab565b60405180910390fd5b6108e98282611a55565b5050565b7f352d05fe3946dbe49277552ba941e744d5a96d9c60bc1ba0ea5f1d3ae000f7c881565b60006109b361091e611480565b84846034600061092c611480565b73ffffffffffffffffffffffffffffffffffffffff1673ffffffffffffffffffffffffffffffffffffffff16815260200190815260200160002060008873ffffffffffffffffffffffffffffffffffffffff1673ffffffffffffffffffffffffffffffffffffffff168152602001908152602001600020546109ae9190613071565b611488565b6001905092915050565b600060cb60008373ffffffffffffffffffffffffffffffffffffffff1673ffffffffffffffffffffffffffffffffffffffff16815260200190815260200160002060009054906101000a900460ff169050919050565b6000603360008373ffffffffffffffffffffffffffffffffffffffff1673ffffffffffffffffffffffffffffffffffffffff168152602001908152602001600020549050919050565b610a696000801b33610c8f565b610aa8576040517f08c379a0000000000000000000000000000000000000000000000000000000008152600401610a9f90612f0b565b60405180910390fd5b610ad27f352d05fe3946dbe49277552ba941e744d5a96d9c60bc1ba0ea5f1d3ae000f7c882610838565b50565b600060019054906101000a900460ff1680610afb575060008054906101000a900460ff16155b610b3a576040517f08c379a0000000000000000000000000000000000000000000000000000000008152600401610b3190612e6b565b60405180910390fd5b60008060019054906101000a900460ff161590508015610b8a576001600060016101000a81548160ff02191690831515021790555060016000806101000a81548160ff0219169083151502179055505b610b92611b37565b610c066040518060400160405280600a81526020017f536d6f6b65546f6b656e000000000000000000000000000000000000000000008152506040518060400160405280600481526020017f534d4b4500000000000000000000000000000000000000000000000000000000815250611c28565b610c0e610861565b600a610c1a919061314b565b610444610c279190613269565b60c981905550610c35610861565b600a610c41919061314b565b610444610c4e9190613269565b60ca81905550610c616000801b33611d15565b8015610c825760008060016101000a81548160ff0219169083151502179055505b50565b600060ca54905090565b60006097600084815260200190815260200160002060000160008373ffffffffffffffffffffffffffffffffffffffff1673ffffffffffffffffffffffffffffffffffffffff16815260200190815260200160002060009054906101000a900460ff16905092915050565b606060378054610d09906133df565b80601f0160208091040260200160405190810160405280929190818152602001828054610d35906133df565b8015610d825780601f10610d5757610100808354040283529160200191610d82565b820191906000526020600020905b815481529060010190602001808311610d6557829003601f168201915b5050505050905090565b6000801b81565b60008060346000610da2611480565b73ffffffffffffffffffffffffffffffffffffffff1673ffffffffffffffffffffffffffffffffffffffff16815260200190815260200160002060008573ffffffffffffffffffffffffffffffffffffffff1673ffffffffffffffffffffffffffffffffffffffff16815260200190815260200160002054905082811015610e5f576040517f08c379a0000000000000000000000000000000000000000000000000000000008152600401610e5690612f8b565b60405180910390fd5b610e73610e6a611480565b85858403611488565b600191505092915050565b600060c954905090565b6000610e9c610e95611480565b8484611653565b6001905092915050565b610eb36000801b33610c8f565b610ef2576040517f08c379a0000000000000000000000000000000000000000000000000000000008152600401610ee990612f4b565b60405180910390fd5b8060c98190555050565b610f267f352d05fe3946dbe49277552ba941e744d5a96d9c60bc1ba0ea5f1d3ae000f7c833610c8f565b610f65576040517f08c379a0000000000000000000000000000000000000000000000000000000008152600401610f5c90612e8b565b60405180910390fd5b6000600160cc8054905010610f9557610f8e60cc8054905060ca54611d2390919063ffffffff16565b9050610f9b565b60ca5490505b60005b60cc8054905081101561100e57610ff360cc8281548110610fc257610fc161349e565b5b9060005260206000200160009054906101000a900473ffffffffffffffffffffffffffffffffffffffff1683611d39565b611007600182611e9a90919063ffffffff16565b9050610f9e565b507fa4b533e737a64f4b187c6009af48ee835cd4768a2dcdda6f59611f8667a429084282604051611040929190613006565b60405180910390a150565b6110548261080b565b61106581611060611480565b6118d7565b61106f8383611a55565b505050565b60cb60003373ffffffffffffffffffffffffffffffffffffffff1673ffffffffffffffffffffffffffffffffffffffff16815260200190815260200160002060009054906101000a900460ff1615611101576040517f08c379a00000000000000000000000000000000000000000000000000000000081526004016110f890612deb565b60405180910390fd5b61110d3360c954611d39565b60cc339080600181540180825580915050600190039060005260206000200160009091909190916101000a81548173ffffffffffffffffffffffffffffffffffffffff021916908373ffffffffffffffffffffffffffffffffffffffff160217905550600160cb60003373ffffffffffffffffffffffffffffffffffffffff1673ffffffffffffffffffffffffffffffffffffffff16815260200190815260200160002060006101000a81548160ff0219169083151502179055507fb4dcb6dd550f27b5917ebf674899ea7046ff91790c6f9f01431617ad39819db2336040516111f79190612cef565b60405180910390a1565b6000603460008473ffffffffffffffffffffffffffffffffffffffff1673ffffffffffffffffffffffffffffffffffffffff16815260200190815260200160002060008373ffffffffffffffffffffffffffffffffffffffff1673ffffffffffffffffffffffffffffffffffffffff16815260200190815260200160002054905092915050565b8061129233610a13565b10156112d3576040517f08c379a00000000000000000000000000000000000000000000000000000000081526004016112ca90612ecb565b60405180910390fd5b6112dd3382611eb0565b6000600160cc805490501061130b5761130460cc8054905083611d2390919063ffffffff16565b905061130f565b8190505b60005b60cc805490508110156113825761136760cc82815481106113365761133561349e565b5b9060005260206000200160009054906101000a900473ffffffffffffffffffffffffffffffffffffffff1683611d39565b61137b600182611e9a90919063ffffffff16565b9050611312565b507f5738a5b61d0eb21b15b8e5fc8e3fa55d6e5af02748a3e87a3bc1e3134cf8e44c33836040516113b4929190612d0a565b60405180910390a15050565b6113cd6000801b33610c8f565b61140c576040517f08c379a000000000000000000000000000000000000000000000000000000000815260040161140390612e4b565b60405180910390fd5b8060ca8190555050565b60007f01ffc9a7000000000000000000000000000000000000000000000000000000007bffffffffffffffffffffffffffffffffffffffffffffffffffffffff1916827bffffffffffffffffffffffffffffffffffffffffffffffffffffffff1916149050919050565b600033905090565b600073ffffffffffffffffffffffffffffffffffffffff168373ffffffffffffffffffffffffffffffffffffffff1614156114f8576040517f08c379a00000000000000000000000000000000000000000000000000000000081526004016114ef90612f6b565b60405180910390fd5b600073ffffffffffffffffffffffffffffffffffffffff168273ffffffffffffffffffffffffffffffffffffffff161415611568576040517f08c379a000000000000000000000000000000000000000000000000000000000815260040161155f90612e0b565b60405180910390fd5b80603460008573ffffffffffffffffffffffffffffffffffffffff1673ffffffffffffffffffffffffffffffffffffffff16815260200190815260200160002060008473ffffffffffffffffffffffffffffffffffffffff1673ffffffffffffffffffffffffffffffffffffffff168152602001908152602001600020819055508173ffffffffffffffffffffffffffffffffffffffff168373ffffffffffffffffffffffffffffffffffffffff167f8c5be1e5ebec7d5bd14f71427d1e84f3dd0314c0f7b2291e5b200ac8c7c3b925836040516116469190612feb565b60405180910390a3505050565b600073ffffffffffffffffffffffffffffffffffffffff168373ffffffffffffffffffffffffffffffffffffffff1614156116c3576040517f08c379a00000000000000000000000000000000000000000000000000000000081526004016116ba90612f2b565b60405180910390fd5b600073ffffffffffffffffffffffffffffffffffffffff168273ffffffffffffffffffffffffffffffffffffffff161415611733576040517f08c379a000000000000000000000000000000000000000000000000000000000815260040161172a90612dab565b60405180910390fd5b61173e838383612089565b6000603360008573ffffffffffffffffffffffffffffffffffffffff1673ffffffffffffffffffffffffffffffffffffffff168152602001908152602001600020549050818110156117c5576040517f08c379a00000000000000000000000000000000000000000000000000000000081526004016117bc90612e2b565b60405180910390fd5b818103603360008673ffffffffffffffffffffffffffffffffffffffff1673ffffffffffffffffffffffffffffffffffffffff1681526020019081526020016000208190555081603360008573ffffffffffffffffffffffffffffffffffffffff1673ffffffffffffffffffffffffffffffffffffffff168152602001908152602001600020600082825461185a9190613071565b925050819055508273ffffffffffffffffffffffffffffffffffffffff168473ffffffffffffffffffffffffffffffffffffffff167fddf252ad1be2c89b69c2b068fc378daa952ba7f163c4a11628f55a4df523b3ef846040516118be9190612feb565b60405180910390a36118d184848461208e565b50505050565b6118e18282610c8f565b611970576119068173ffffffffffffffffffffffffffffffffffffffff166014612093565b6119148360001c6020612093565b604051602001611925929190612cb5565b6040516020818303038152906040526040517f08c379a00000000000000000000000000000000000000000000000000000000081526004016119679190612d69565b60405180910390fd5b5050565b61197e8282610c8f565b611a515760016097600084815260200190815260200160002060000160008373ffffffffffffffffffffffffffffffffffffffff1673ffffffffffffffffffffffffffffffffffffffff16815260200190815260200160002060006101000a81548160ff0219169083151502179055506119f6611480565b73ffffffffffffffffffffffffffffffffffffffff168173ffffffffffffffffffffffffffffffffffffffff16837f2f8788117e7eff1d82e926ec794901d17c78024a50270940304540a733656f0d60405160405180910390a45b5050565b611a5f8282610c8f565b15611b335760006097600084815260200190815260200160002060000160008373ffffffffffffffffffffffffffffffffffffffff1673ffffffffffffffffffffffffffffffffffffffff16815260200190815260200160002060006101000a81548160ff021916908315150217905550611ad8611480565b73ffffffffffffffffffffffffffffffffffffffff168173ffffffffffffffffffffffffffffffffffffffff16837ff6391f5c32d9c69d2a47ea670b442974b53935d1edc7fd64eb21e047a839171b60405160405180910390a45b5050565b600060019054906101000a900460ff1680611b5d575060008054906101000a900460ff16155b611b9c576040517f08c379a0000000000000000000000000000000000000000000000000000000008152600401611b9390612e6b565b60405180910390fd5b60008060019054906101000a900460ff161590508015611bec576001600060016101000a81548160ff02191690831515021790555060016000806101000a81548160ff0219169083151502179055505b611bf46122cf565b611bfc6123a8565b611c04612481565b8015611c255760008060016101000a81548160ff0219169083151502179055505b50565b600060019054906101000a900460ff1680611c4e575060008054906101000a900460ff16155b611c8d576040517f08c379a0000000000000000000000000000000000000000000000000000000008152600401611c8490612e6b565b60405180910390fd5b60008060019054906101000a900460ff161590508015611cdd576001600060016101000a81548160ff02191690831515021790555060016000806101000a81548160ff0219169083151502179055505b611ce56122cf565b611cef838361255a565b8015611d105760008060016101000a81548160ff0219169083151502179055505b505050565b611d1f8282611974565b5050565b60008183611d3191906130c7565b905092915050565b600073ffffffffffffffffffffffffffffffffffffffff168273ffffffffffffffffffffffffffffffffffffffff161415611da9576040517f08c379a0000000000000000000000000000000000000000000000000000000008152600401611da090612fcb565b60405180910390fd5b611db560008383612089565b8060356000828254611dc79190613071565b9250508190555080603360008473ffffffffffffffffffffffffffffffffffffffff1673ffffffffffffffffffffffffffffffffffffffff1681526020019081526020016000206000828254611e1d9190613071565b925050819055508173ffffffffffffffffffffffffffffffffffffffff16600073ffffffffffffffffffffffffffffffffffffffff167fddf252ad1be2c89b69c2b068fc378daa952ba7f163c4a11628f55a4df523b3ef83604051611e829190612feb565b60405180910390a3611e966000838361208e565b5050565b60008183611ea89190613071565b905092915050565b600073ffffffffffffffffffffffffffffffffffffffff168273ffffffffffffffffffffffffffffffffffffffff161415611f20576040517f08c379a0000000000000000000000000000000000000000000000000000000008152600401611f1790612eeb565b60405180910390fd5b611f2c82600083612089565b6000603360008473ffffffffffffffffffffffffffffffffffffffff1673ffffffffffffffffffffffffffffffffffffffff16815260200190815260200160002054905081811015611fb3576040517f08c379a0000000000000000000000000000000000000000000000000000000008152600401611faa90612dcb565b60405180910390fd5b818103603360008573ffffffffffffffffffffffffffffffffffffffff1673ffffffffffffffffffffffffffffffffffffffff16815260200190815260200160002081905550816035600082825461200b91906132c3565b92505081905550600073ffffffffffffffffffffffffffffffffffffffff168373ffffffffffffffffffffffffffffffffffffffff167fddf252ad1be2c89b69c2b068fc378daa952ba7f163c4a11628f55a4df523b3ef846040516120709190612feb565b60405180910390a36120848360008461208e565b505050565b505050565b505050565b6060600060028360026120a69190613269565b6120b09190613071565b67ffffffffffffffff8111156120c9576120c86134cd565b5b6040519080825280601f01601f1916602001820160405280156120fb5781602001600182028036833780820191505090505b5090507f3000000000000000000000000000000000000000000000000000000000000000816000815181106121335761213261349e565b5b60200101907effffffffffffffffffffffffffffffffffffffffffffffffffffffffffffff1916908160001a9053507f7800000000000000000000000000000000000000000000000000000000000000816001815181106121975761219661349e565b5b60200101907effffffffffffffffffffffffffffffffffffffffffffffffffffffffffffff1916908160001a905350600060018460026121d79190613269565b6121e19190613071565b90505b6001811115612281577f3031323334353637383961626364656600000000000000000000000000000000600f8616601081106122235761222261349e565b5b1a60f81b82828151811061223a5761223961349e565b5b60200101907effffffffffffffffffffffffffffffffffffffffffffffffffffffffffffff1916908160001a905350600485901c94508061227a906133b5565b90506121e4565b50600084146122c5576040517f08c379a00000000000000000000000000000000000000000000000000000000081526004016122bc90612d8b565b60405180910390fd5b8091505092915050565b600060019054906101000a900460ff16806122f5575060008054906101000a900460ff16155b612334576040517f08c379a000000000000000000000000000000000000000000000000000000000815260040161232b90612e6b565b60405180910390fd5b60008060019054906101000a900460ff161590508015612384576001600060016101000a81548160ff02191690831515021790555060016000806101000a81548160ff0219169083151502179055505b80156123a55760008060016101000a81548160ff0219169083151502179055505b50565b600060019054906101000a900460ff16806123ce575060008054906101000a900460ff16155b61240d576040517f08c379a000000000000000000000000000000000000000000000000000000000815260040161240490612e6b565b60405180910390fd5b60008060019054906101000a900460ff16159050801561245d576001600060016101000a81548160ff02191690831515021790555060016000806101000a81548160ff0219169083151502179055505b801561247e5760008060016101000a81548160ff0219169083151502179055505b50565b600060019054906101000a900460ff16806124a7575060008054906101000a900460ff16155b6124e6576040517f08c379a00000000000000000000000000000000000000000000000000000000081526004016124dd90612e6b565b60405180910390fd5b60008060019054906101000a900460ff161590508015612536576001600060016101000a81548160ff02191690831515021790555060016000806101000a81548160ff0219169083151502179055505b80156125575760008060016101000a81548160ff0219169083151502179055505b50565b600060019054906101000a900460ff1680612580575060008054906101000a900460ff16155b6125bf576040517f08c379a00000000000000000000000000000000000000000000000000000000081526004016125b690612e6b565b60405180910390fd5b60008060019054906101000a900460ff16159050801561260f576001600060016101000a81548160ff02191690831515021790555060016000806101000a81548160ff0219169083151502179055505b8260369080519060200190612625929190612663565b50816037908051906020019061263c929190612663565b50801561265e5760008060016101000a81548160ff0219169083151502179055505b505050565b82805461266f906133df565b90600052602060002090601f01602090048101928261269157600085556126d8565b82601f106126aa57805160ff19168380011785556126d8565b828001600101855582156126d8579182015b828111156126d75782518255916020019190600101906126bc565b5b5090506126e591906126e9565b5090565b5b808211156127025760008160009055506001016126ea565b5090565b60008135905061271581613b02565b92915050565b60008135905061272a81613b19565b92915050565b60008135905061273f81613b30565b92915050565b60008135905061275481613b47565b92915050565b6000602082840312156127705761276f6134fc565b5b600061277e84828501612706565b91505092915050565b6000806040838503121561279e5761279d6134fc565b5b60006127ac85828601612706565b92505060206127bd85828601612706565b9150509250929050565b6000806000606084860312156127e0576127df6134fc565b5b60006127ee86828701612706565b93505060206127ff86828701612706565b925050604061281086828701612745565b9150509250925092565b60008060408385031215612831576128306134fc565b5b600061283f85828601612706565b925050602061285085828601612745565b9150509250929050565b6000602082840312156128705761286f6134fc565b5b600061287e8482850161271b565b91505092915050565b6000806040838503121561289e5761289d6134fc565b5b60006128ac8582860161271b565b92505060206128bd85828601612706565b9150509250929050565b6000602082840312156128dd576128dc6134fc565b5b60006128eb84828501612730565b91505092915050565b60006020828403121561290a576129096134fc565b5b600061291884828501612745565b91505092915050565b61292a816132f7565b82525050565b61293981613309565b82525050565b61294881613315565b82525050565b60006129598261304a565b6129638185613055565b9350612973818560208601613382565b61297c81613501565b840191505092915050565b60006129928261304a565b61299c8185613066565b93506129ac818560208601613382565b80840191505092915050565b60006129c5602083613055565b91506129d08261351f565b602082019050919050565b60006129e8602383613055565b91506129f382613548565b604082019050919050565b6000612a0b602283613055565b9150612a1682613597565b604082019050919050565b6000612a2e603083613055565b9150612a39826135e6565b604082019050919050565b6000612a51602283613055565b9150612a5c82613635565b604082019050919050565b6000612a74602683613055565b9150612a7f82613684565b604082019050919050565b6000612a97603683613055565b9150612aa2826136d3565b604082019050919050565b6000612aba602e83613055565b9150612ac582613722565b604082019050919050565b6000612add602f83613055565b9150612ae882613771565b604082019050919050565b6000612b00602883613055565b9150612b0b826137c0565b604082019050919050565b6000612b23602683613055565b9150612b2e8261380f565b604082019050919050565b6000612b46602183613055565b9150612b518261385e565b604082019050919050565b6000612b69602483613055565b9150612b74826138ad565b604082019050919050565b6000612b8c602583613055565b9150612b97826138fc565b604082019050919050565b6000612baf602e83613055565b9150612bba8261394b565b604082019050919050565b6000612bd2602483613055565b9150612bdd8261399a565b604082019050919050565b6000612bf5601783613066565b9150612c00826139e9565b601782019050919050565b6000612c18602583613055565b9150612c2382613a12565b604082019050919050565b6000612c3b601183613066565b9150612c4682613a61565b601182019050919050565b6000612c5e602f83613055565b9150612c6982613a8a565b604082019050919050565b6000612c81601f83613055565b9150612c8c82613ad9565b602082019050919050565b612ca08161336b565b82525050565b612caf81613375565b82525050565b6000612cc082612be8565b9150612ccc8285612987565b9150612cd782612c2e565b9150612ce38284612987565b91508190509392505050565b6000602082019050612d046000830184612921565b92915050565b6000604082019050612d1f6000830185612921565b612d2c6020830184612c97565b9392505050565b6000602082019050612d486000830184612930565b92915050565b6000602082019050612d63600083018461293f565b92915050565b60006020820190508181036000830152612d83818461294e565b905092915050565b60006020820190508181036000830152612da4816129b8565b9050919050565b60006020820190508181036000830152612dc4816129db565b9050919050565b60006020820190508181036000830152612de4816129fe565b9050919050565b60006020820190508181036000830152612e0481612a21565b9050919050565b60006020820190508181036000830152612e2481612a44565b9050919050565b60006020820190508181036000830152612e4481612a67565b9050919050565b60006020820190508181036000830152612e6481612a8a565b9050919050565b60006020820190508181036000830152612e8481612aad565b9050919050565b60006020820190508181036000830152612ea481612ad0565b9050919050565b60006020820190508181036000830152612ec481612af3565b9050919050565b60006020820190508181036000830152612ee481612b16565b9050919050565b60006020820190508181036000830152612f0481612b39565b9050919050565b60006020820190508181036000830152612f2481612b5c565b9050919050565b60006020820190508181036000830152612f4481612b7f565b9050919050565b60006020820190508181036000830152612f6481612ba2565b9050919050565b60006020820190508181036000830152612f8481612bc5565b9050919050565b60006020820190508181036000830152612fa481612c0b565b9050919050565b60006020820190508181036000830152612fc481612c51565b9050919050565b60006020820190508181036000830152612fe481612c74565b9050919050565b60006020820190506130006000830184612c97565b92915050565b600060408201905061301b6000830185612c97565b6130286020830184612c97565b9392505050565b60006020820190506130446000830184612ca6565b92915050565b600081519050919050565b600082825260208201905092915050565b600081905092915050565b600061307c8261336b565b91506130878361336b565b9250827fffffffffffffffffffffffffffffffffffffffffffffffffffffffffffffffff038211156130bc576130bb613411565b5b828201905092915050565b60006130d28261336b565b91506130dd8361336b565b9250826130ed576130ec613440565b5b828204905092915050565b6000808291508390505b60018511156131425780860481111561311e5761311d613411565b5b600185161561312d5780820291505b808102905061313b85613512565b9450613102565b94509492505050565b60006131568261336b565b915061316183613375565b925061318e7fffffffffffffffffffffffffffffffffffffffffffffffffffffffffffffffff8484613196565b905092915050565b6000826131a65760019050613262565b816131b45760009050613262565b81600181146131ca57600281146131d457613203565b6001915050613262565b60ff8411156131e6576131e5613411565b5b8360020a9150848211156131fd576131fc613411565b5b50613262565b5060208310610133831016604e8410600b84101617156132385782820a90508381111561323357613232613411565b5b613262565b61324584848460016130f8565b9250905081840481111561325c5761325b613411565b5b81810290505b9392505050565b60006132748261336b565b915061327f8361336b565b9250817fffffffffffffffffffffffffffffffffffffffffffffffffffffffffffffffff04831182151516156132b8576132b7613411565b5b828202905092915050565b60006132ce8261336b565b91506132d98361336b565b9250828210156132ec576132eb613411565b5b828203905092915050565b60006133028261334b565b9050919050565b60008115159050919050565b6000819050919050565b60007fffffffff0000000000000000000000000000000000000000000000000000000082169050919050565b600073ffffffffffffffffffffffffffffffffffffffff82169050919050565b6000819050919050565b600060ff82169050919050565b60005b838110156133a0578082015181840152602081019050613385565b838111156133af576000848401525b50505050565b60006133c08261336b565b915060008214156133d4576133d3613411565b5b600182039050919050565b600060028204905060018216806133f757607f821691505b6020821081141561340b5761340a61346f565b5b50919050565b7f4e487b7100000000000000000000000000000000000000000000000000000000600052601160045260246000fd5b7f4e487b7100000000000000000000000000000000000000000000000000000000600052601260045260246000fd5b7f4e487b7100000000000000000000000000000000000000000000000000000000600052602260045260246000fd5b7f4e487b7100000000000000000000000000000000000000000000000000000000600052603260045260246000fd5b7f4e487b7100000000000000000000000000000000000000000000000000000000600052604160045260246000fd5b600080fd5b6000601f19601f8301169050919050565b60008160011c9050919050565b7f537472696e67733a20686578206c656e67746820696e73756666696369656e74600082015250565b7f45524332303a207472616e7366657220746f20746865207a65726f206164647260008201527f6573730000000000000000000000000000000000000000000000000000000000602082015250565b7f45524332303a206275726e20616d6f756e7420657863656564732062616c616e60008201527f6365000000000000000000000000000000000000000000000000000000000000602082015250565b7f4572726f723a205468697320616464726573732068617320616c72656164792060008201527f67656e65726174656420736d6f6b652e00000000000000000000000000000000602082015250565b7f45524332303a20617070726f766520746f20746865207a65726f20616464726560008201527f7373000000000000000000000000000000000000000000000000000000000000602082015250565b7f45524332303a207472616e7366657220616d6f756e742065786365656473206260008201527f616c616e63650000000000000000000000000000000000000000000000000000602082015250565b7f4572726f723a204f6e6c7920746865206f776e65722063616e2073657420746860008201527f6520646973747269627574696f6e20616d6f756e742e00000000000000000000602082015250565b7f496e697469616c697a61626c653a20636f6e747261637420697320616c72656160008201527f647920696e697469616c697a6564000000000000000000000000000000000000602082015250565b7f4572726f723a204f6e6c7920616e206f7261636c652063616e2063616c6c206160008201527f20776f6f207765646e65736461792e0000000000000000000000000000000000602082015250565b7f45524332303a207472616e7366657220616d6f756e742065786365656473206160008201527f6c6c6f77616e6365000000000000000000000000000000000000000000000000602082015250565b7f45524332303a205472616e7366657220616d6f756e742065786365656473206260008201527f616c616e63650000000000000000000000000000000000000000000000000000602082015250565b7f45524332303a206275726e2066726f6d20746865207a65726f2061646472657360008201527f7300000000000000000000000000000000000000000000000000000000000000602082015250565b7f4572726f723a204f6e6c7920616e2061646d696e2063616e207365742061207260008201527f6f6c652e00000000000000000000000000000000000000000000000000000000602082015250565b7f45524332303a207472616e736665722066726f6d20746865207a65726f20616460008201527f6472657373000000000000000000000000000000000000000000000000000000602082015250565b7f4572726f723a204f6e6c7920746865206f776e65722063616e2073657420746860008201527f65206d696e7420616d6f756e742e000000000000000000000000000000000000602082015250565b7f45524332303a20617070726f76652066726f6d20746865207a65726f2061646460008201527f7265737300000000000000000000000000000000000000000000000000000000602082015250565b7f416363657373436f6e74726f6c3a206163636f756e7420000000000000000000600082015250565b7f45524332303a2064656372656173656420616c6c6f77616e63652062656c6f7760008201527f207a65726f000000000000000000000000000000000000000000000000000000602082015250565b7f206973206d697373696e6720726f6c6520000000000000000000000000000000600082015250565b7f416363657373436f6e74726f6c3a2063616e206f6e6c792072656e6f756e636560008201527f20726f6c657320666f722073656c660000000000000000000000000000000000602082015250565b7f45524332303a206d696e7420746f20746865207a65726f206164647265737300600082015250565b613b0b816132f7565b8114613b1657600080fd5b50565b613b2281613315565b8114613b2d57600080fd5b50565b613b398161331f565b8114613b4457600080fd5b50565b613b508161336b565b8114613b5b57600080fd5b5056fea2646970667358221220b068a62f73948e33f1905722af1243446ac357ab6d2144bfeda8a302fbd4a45464736f6c63430008070033",
  "immutableReferences": {},
  "source": "//  contracts/SmokeToken.sol\r\n//  SPDX-License-Identifier: MIT\r\npragma solidity >=0.8.7;\r\n\r\nimport \"../node_modules/@openzeppelin/contracts/utils/math/SafeMath.sol\";\r\nimport \"../node_modules/@openzeppelin/contracts-upgradeable/access/AccessControlUpgradeable.sol\";\r\nimport \"../node_modules/@openzeppelin/contracts-upgradeable/token/ERC20/ERC20Upgradeable.sol\";\r\nimport \"../node_modules/@openzeppelin/contracts-upgradeable/proxy/utils/Initializable.sol\";\r\n\r\n/// @title SmokeToken for a private discord group.\r\n/// @author adamdire\r\n/// @notice A token to use between friends as a meme / form of validation of our ranking.\r\ncontract SmokeTokenUpgradeable is\r\n    Initializable,\r\n    ERC20Upgradeable,\r\n    AccessControlUpgradeable\r\n{\r\n    using SafeMath for uint256;\r\n\r\n    // Roles\r\n    bytes32 public constant ORACLE = keccak256(\"ORACLE\");\r\n\r\n    //  Variables\r\n    uint256 private _mintAmount;\r\n    uint256 private _distributionAmount;\r\n    mapping(address => bool) private _hasGeneratedSmoke;\r\n    address[] private _members;\r\n\r\n    //  Events\r\n    event Wooed(address address_, uint256 amount);\r\n    event NewMember(address address_);\r\n    event WooWednesday(uint256 timestamp, uint256 individualAmount);\r\n\r\n    function initialize() public initializer {\r\n        __AccessControl_init();\r\n        __ERC20_init(\"SmokeToken\", \"SMKE\");\r\n        _mintAmount = 1092 * 10**decimals();\r\n        _distributionAmount = 1092 * 10**decimals();\r\n        _setupRole(DEFAULT_ADMIN_ROLE, msg.sender);\r\n    }\r\n\r\n    function generateSmoke() external {\r\n        require(\r\n            !_hasGeneratedSmoke[msg.sender],\r\n            \"Error: This address has already generated smoke.\"\r\n        );\r\n        _mint(msg.sender, _mintAmount);\r\n        _members.push(msg.sender);\r\n        _hasGeneratedSmoke[msg.sender] = true;\r\n        emit NewMember(msg.sender);\r\n    }\r\n\r\n    function woo(uint256 amount) external {\r\n        require(\r\n            balanceOf(msg.sender) >= amount,\r\n            \"ERC20: Transfer amount exceeds balance\"\r\n        );\r\n        _burn(msg.sender, amount);\r\n\r\n        uint256 individualAmount;\r\n        if (_members.length >= 1) {\r\n            individualAmount = amount.div(_members.length);\r\n        } else {\r\n            individualAmount = amount;\r\n        }\r\n\r\n        for (uint256 i = 0; i < _members.length; i = i.add(1)) {\r\n            _mint(_members[i], individualAmount);\r\n        }\r\n\r\n        emit Wooed(msg.sender, amount);\r\n    }\r\n\r\n    function wooWednesday() external {\r\n        require(\r\n            hasRole(ORACLE, msg.sender),\r\n            \"Error: Only an oracle can call a woo wednesday.\"\r\n        );\r\n\r\n        uint256 individualAmount;\r\n        if (_members.length >= 1) {\r\n            individualAmount = _distributionAmount.div(_members.length);\r\n        } else {\r\n            individualAmount = _distributionAmount;\r\n        }\r\n\r\n        for (uint256 i = 0; i < _members.length; i = i.add(1)) {\r\n            _mint(_members[i], individualAmount);\r\n        }\r\n\r\n        emit WooWednesday(block.timestamp, individualAmount);\r\n    }\r\n\r\n    function setMintAmount(uint256 mintAmount_) external {\r\n        require(\r\n            hasRole(DEFAULT_ADMIN_ROLE, msg.sender),\r\n            \"Error: Only the owner can set the mint amount.\"\r\n        );\r\n        _mintAmount = mintAmount_;\r\n    }\r\n\r\n    function getMintAmount() external view returns (uint256) {\r\n        return _mintAmount;\r\n    }\r\n\r\n    function setDistributionAmount(uint256 distributionAmount_) external {\r\n        require(\r\n            hasRole(DEFAULT_ADMIN_ROLE, msg.sender),\r\n            \"Error: Only the owner can set the distribution amount.\"\r\n        );\r\n        _distributionAmount = distributionAmount_;\r\n    }\r\n\r\n    function getDistributionAmount() external view returns (uint256) {\r\n        return _distributionAmount;\r\n    }\r\n\r\n    function setOracle(address address_) external {\r\n        require(\r\n            hasRole(DEFAULT_ADMIN_ROLE, msg.sender),\r\n            \"Error: Only an admin can set a role.\"\r\n        );\r\n\r\n        grantRole(ORACLE, address_);\r\n    }\r\n\r\n    function hasGeneratedSmoke(address _address) external view returns (bool) {\r\n        return _hasGeneratedSmoke[_address];\r\n    }\r\n\r\n    function membersCount() external view returns (uint256) {\r\n        return _members.length;\r\n    }\r\n}\r\n",
  "sourcePath": "C:\\Users\\adamd\\development\\SmokeCoin\\token\\contracts\\SmokeTokenUpgradeable.sol",
  "compiler": {
    "name": "solc",
    "version": "0.8.7+commit.e28d00a7.Emscripten.clang"
  },
  "schemaVersion": "3.4.3",
  "updatedAt": "2021-09-02T00:22:19.319Z",
  "networkType": "ethereum",
  "devdoc": {
    "author": "adamdire",
    "kind": "dev",
    "methods": {
      "allowance(address,address)": {
        "details": "See {IERC20-allowance}."
      },
      "approve(address,uint256)": {
        "details": "See {IERC20-approve}. Requirements: - `spender` cannot be the zero address."
      },
      "balanceOf(address)": {
        "details": "See {IERC20-balanceOf}."
      },
      "decimals()": {
        "details": "Returns the number of decimals used to get its user representation. For example, if `decimals` equals `2`, a balance of `505` tokens should be displayed to a user as `5.05` (`505 / 10 ** 2`). Tokens usually opt for a value of 18, imitating the relationship between Ether and Wei. This is the value {ERC20} uses, unless this function is overridden; NOTE: This information is only used for _display_ purposes: it in no way affects any of the arithmetic of the contract, including {IERC20-balanceOf} and {IERC20-transfer}."
      },
      "decreaseAllowance(address,uint256)": {
        "details": "Atomically decreases the allowance granted to `spender` by the caller. This is an alternative to {approve} that can be used as a mitigation for problems described in {IERC20-approve}. Emits an {Approval} event indicating the updated allowance. Requirements: - `spender` cannot be the zero address. - `spender` must have allowance for the caller of at least `subtractedValue`."
      },
      "getRoleAdmin(bytes32)": {
        "details": "Returns the admin role that controls `role`. See {grantRole} and {revokeRole}. To change a role's admin, use {_setRoleAdmin}."
      },
      "grantRole(bytes32,address)": {
        "details": "Grants `role` to `account`. If `account` had not been already granted `role`, emits a {RoleGranted} event. Requirements: - the caller must have ``role``'s admin role."
      },
      "hasRole(bytes32,address)": {
        "details": "Returns `true` if `account` has been granted `role`."
      },
      "increaseAllowance(address,uint256)": {
        "details": "Atomically increases the allowance granted to `spender` by the caller. This is an alternative to {approve} that can be used as a mitigation for problems described in {IERC20-approve}. Emits an {Approval} event indicating the updated allowance. Requirements: - `spender` cannot be the zero address."
      },
      "name()": {
        "details": "Returns the name of the token."
      },
      "renounceRole(bytes32,address)": {
        "details": "Revokes `role` from the calling account. Roles are often managed via {grantRole} and {revokeRole}: this function's purpose is to provide a mechanism for accounts to lose their privileges if they are compromised (such as when a trusted device is misplaced). If the calling account had been granted `role`, emits a {RoleRevoked} event. Requirements: - the caller must be `account`."
      },
      "revokeRole(bytes32,address)": {
        "details": "Revokes `role` from `account`. If `account` had been granted `role`, emits a {RoleRevoked} event. Requirements: - the caller must have ``role``'s admin role."
      },
      "supportsInterface(bytes4)": {
        "details": "See {IERC165-supportsInterface}."
      },
      "symbol()": {
        "details": "Returns the symbol of the token, usually a shorter version of the name."
      },
      "totalSupply()": {
        "details": "See {IERC20-totalSupply}."
      },
      "transfer(address,uint256)": {
        "details": "See {IERC20-transfer}. Requirements: - `recipient` cannot be the zero address. - the caller must have a balance of at least `amount`."
      },
      "transferFrom(address,address,uint256)": {
        "details": "See {IERC20-transferFrom}. Emits an {Approval} event indicating the updated allowance. This is not required by the EIP. See the note at the beginning of {ERC20}. Requirements: - `sender` and `recipient` cannot be the zero address. - `sender` must have a balance of at least `amount`. - the caller must have allowance for ``sender``'s tokens of at least `amount`."
      }
    },
    "title": "SmokeToken for a private discord group.",
    "version": 1
  },
  "userdoc": {
    "kind": "user",
    "methods": {},
    "notice": "A token to use between friends as a meme / form of validation of our ranking.",
    "version": 1
  }
}