{
  "contractName": "SmokeToken",
  "abi": [
    {
      "inputs": [],
      "stateMutability": "nonpayable",
      "type": "constructor"
    },
    {
      "anonymous": false,
      "inputs": [
        {
          "indexed": true,
          "internalType": "address",
          "name": "owner",
          "type": "address"
        },
        {
          "indexed": true,
          "internalType": "address",
          "name": "spender",
          "type": "address"
        },
        {
          "indexed": false,
          "internalType": "uint256",
          "name": "value",
          "type": "uint256"
        }
      ],
      "name": "Approval",
      "type": "event"
    },
    {
      "anonymous": false,
      "inputs": [
        {
          "indexed": false,
          "internalType": "address",
          "name": "address_",
          "type": "address"
        }
      ],
      "name": "NewMember",
      "type": "event"
    },
    {
      "anonymous": false,
      "inputs": [
        {
          "indexed": true,
          "internalType": "bytes32",
          "name": "role",
          "type": "bytes32"
        },
        {
          "indexed": true,
          "internalType": "bytes32",
          "name": "previousAdminRole",
          "type": "bytes32"
        },
        {
          "indexed": true,
          "internalType": "bytes32",
          "name": "newAdminRole",
          "type": "bytes32"
        }
      ],
      "name": "RoleAdminChanged",
      "type": "event"
    },
    {
      "anonymous": false,
      "inputs": [
        {
          "indexed": true,
          "internalType": "bytes32",
          "name": "role",
          "type": "bytes32"
        },
        {
          "indexed": true,
          "internalType": "address",
          "name": "account",
          "type": "address"
        },
        {
          "indexed": true,
          "internalType": "address",
          "name": "sender",
          "type": "address"
        }
      ],
      "name": "RoleGranted",
      "type": "event"
    },
    {
      "anonymous": false,
      "inputs": [
        {
          "indexed": true,
          "internalType": "bytes32",
          "name": "role",
          "type": "bytes32"
        },
        {
          "indexed": true,
          "internalType": "address",
          "name": "account",
          "type": "address"
        },
        {
          "indexed": true,
          "internalType": "address",
          "name": "sender",
          "type": "address"
        }
      ],
      "name": "RoleRevoked",
      "type": "event"
    },
    {
      "anonymous": false,
      "inputs": [
        {
          "indexed": true,
          "internalType": "address",
          "name": "from",
          "type": "address"
        },
        {
          "indexed": true,
          "internalType": "address",
          "name": "to",
          "type": "address"
        },
        {
          "indexed": false,
          "internalType": "uint256",
          "name": "value",
          "type": "uint256"
        }
      ],
      "name": "Transfer",
      "type": "event"
    },
    {
      "anonymous": false,
      "inputs": [
        {
          "indexed": false,
          "internalType": "uint256",
          "name": "timestamp",
          "type": "uint256"
        },
        {
          "indexed": false,
          "internalType": "uint256",
          "name": "individualAmount",
          "type": "uint256"
        }
      ],
      "name": "WooWednesday",
      "type": "event"
    },
    {
      "anonymous": false,
      "inputs": [
        {
          "indexed": false,
          "internalType": "address",
          "name": "address_",
          "type": "address"
        },
        {
          "indexed": false,
          "internalType": "uint256",
          "name": "amount",
          "type": "uint256"
        }
      ],
      "name": "Wooed",
      "type": "event"
    },
    {
      "inputs": [],
      "name": "DEFAULT_ADMIN_ROLE",
      "outputs": [
        {
          "internalType": "bytes32",
          "name": "",
          "type": "bytes32"
        }
      ],
      "stateMutability": "view",
      "type": "function"
    },
    {
      "inputs": [],
      "name": "ORACLE",
      "outputs": [
        {
          "internalType": "bytes32",
          "name": "",
          "type": "bytes32"
        }
      ],
      "stateMutability": "view",
      "type": "function"
    },
    {
      "inputs": [
        {
          "internalType": "address",
          "name": "owner",
          "type": "address"
        },
        {
          "internalType": "address",
          "name": "spender",
          "type": "address"
        }
      ],
      "name": "allowance",
      "outputs": [
        {
          "internalType": "uint256",
          "name": "",
          "type": "uint256"
        }
      ],
      "stateMutability": "view",
      "type": "function"
    },
    {
      "inputs": [
        {
          "internalType": "address",
          "name": "spender",
          "type": "address"
        },
        {
          "internalType": "uint256",
          "name": "amount",
          "type": "uint256"
        }
      ],
      "name": "approve",
      "outputs": [
        {
          "internalType": "bool",
          "name": "",
          "type": "bool"
        }
      ],
      "stateMutability": "nonpayable",
      "type": "function"
    },
    {
      "inputs": [
        {
          "internalType": "address",
          "name": "account",
          "type": "address"
        }
      ],
      "name": "balanceOf",
      "outputs": [
        {
          "internalType": "uint256",
          "name": "",
          "type": "uint256"
        }
      ],
      "stateMutability": "view",
      "type": "function"
    },
    {
      "inputs": [],
      "name": "decimals",
      "outputs": [
        {
          "internalType": "uint8",
          "name": "",
          "type": "uint8"
        }
      ],
      "stateMutability": "view",
      "type": "function"
    },
    {
      "inputs": [
        {
          "internalType": "address",
          "name": "spender",
          "type": "address"
        },
        {
          "internalType": "uint256",
          "name": "subtractedValue",
          "type": "uint256"
        }
      ],
      "name": "decreaseAllowance",
      "outputs": [
        {
          "internalType": "bool",
          "name": "",
          "type": "bool"
        }
      ],
      "stateMutability": "nonpayable",
      "type": "function"
    },
    {
      "inputs": [
        {
          "internalType": "bytes32",
          "name": "role",
          "type": "bytes32"
        }
      ],
      "name": "getRoleAdmin",
      "outputs": [
        {
          "internalType": "bytes32",
          "name": "",
          "type": "bytes32"
        }
      ],
      "stateMutability": "view",
      "type": "function"
    },
    {
      "inputs": [
        {
          "internalType": "bytes32",
          "name": "role",
          "type": "bytes32"
        },
        {
          "internalType": "address",
          "name": "account",
          "type": "address"
        }
      ],
      "name": "grantRole",
      "outputs": [],
      "stateMutability": "nonpayable",
      "type": "function"
    },
    {
      "inputs": [
        {
          "internalType": "bytes32",
          "name": "role",
          "type": "bytes32"
        },
        {
          "internalType": "address",
          "name": "account",
          "type": "address"
        }
      ],
      "name": "hasRole",
      "outputs": [
        {
          "internalType": "bool",
          "name": "",
          "type": "bool"
        }
      ],
      "stateMutability": "view",
      "type": "function"
    },
    {
      "inputs": [
        {
          "internalType": "address",
          "name": "spender",
          "type": "address"
        },
        {
          "internalType": "uint256",
          "name": "addedValue",
          "type": "uint256"
        }
      ],
      "name": "increaseAllowance",
      "outputs": [
        {
          "internalType": "bool",
          "name": "",
          "type": "bool"
        }
      ],
      "stateMutability": "nonpayable",
      "type": "function"
    },
    {
      "inputs": [],
      "name": "name",
      "outputs": [
        {
          "internalType": "string",
          "name": "",
          "type": "string"
        }
      ],
      "stateMutability": "view",
      "type": "function"
    },
    {
      "inputs": [
        {
          "internalType": "bytes32",
          "name": "role",
          "type": "bytes32"
        },
        {
          "internalType": "address",
          "name": "account",
          "type": "address"
        }
      ],
      "name": "renounceRole",
      "outputs": [],
      "stateMutability": "nonpayable",
      "type": "function"
    },
    {
      "inputs": [
        {
          "internalType": "bytes32",
          "name": "role",
          "type": "bytes32"
        },
        {
          "internalType": "address",
          "name": "account",
          "type": "address"
        }
      ],
      "name": "revokeRole",
      "outputs": [],
      "stateMutability": "nonpayable",
      "type": "function"
    },
    {
      "inputs": [
        {
          "internalType": "bytes4",
          "name": "interfaceId",
          "type": "bytes4"
        }
      ],
      "name": "supportsInterface",
      "outputs": [
        {
          "internalType": "bool",
          "name": "",
          "type": "bool"
        }
      ],
      "stateMutability": "view",
      "type": "function"
    },
    {
      "inputs": [],
      "name": "symbol",
      "outputs": [
        {
          "internalType": "string",
          "name": "",
          "type": "string"
        }
      ],
      "stateMutability": "view",
      "type": "function"
    },
    {
      "inputs": [],
      "name": "totalSupply",
      "outputs": [
        {
          "internalType": "uint256",
          "name": "",
          "type": "uint256"
        }
      ],
      "stateMutability": "view",
      "type": "function"
    },
    {
      "inputs": [
        {
          "internalType": "address",
          "name": "recipient",
          "type": "address"
        },
        {
          "internalType": "uint256",
          "name": "amount",
          "type": "uint256"
        }
      ],
      "name": "transfer",
      "outputs": [
        {
          "internalType": "bool",
          "name": "",
          "type": "bool"
        }
      ],
      "stateMutability": "nonpayable",
      "type": "function"
    },
    {
      "inputs": [
        {
          "internalType": "address",
          "name": "sender",
          "type": "address"
        },
        {
          "internalType": "address",
          "name": "recipient",
          "type": "address"
        },
        {
          "internalType": "uint256",
          "name": "amount",
          "type": "uint256"
        }
      ],
      "name": "transferFrom",
      "outputs": [
        {
          "internalType": "bool",
          "name": "",
          "type": "bool"
        }
      ],
      "stateMutability": "nonpayable",
      "type": "function"
    },
    {
      "inputs": [],
      "name": "generateSmoke",
      "outputs": [],
      "stateMutability": "nonpayable",
      "type": "function"
    },
    {
      "inputs": [
        {
          "internalType": "uint256",
          "name": "amount",
          "type": "uint256"
        }
      ],
      "name": "woo",
      "outputs": [],
      "stateMutability": "nonpayable",
      "type": "function"
    },
    {
      "inputs": [],
      "name": "wooWednesday",
      "outputs": [],
      "stateMutability": "nonpayable",
      "type": "function"
    },
    {
      "inputs": [
        {
          "internalType": "uint256",
          "name": "mintAmount_",
          "type": "uint256"
        }
      ],
      "name": "setMintAmount",
      "outputs": [],
      "stateMutability": "nonpayable",
      "type": "function"
    },
    {
      "inputs": [],
      "name": "getMintAmount",
      "outputs": [
        {
          "internalType": "uint256",
          "name": "",
          "type": "uint256"
        }
      ],
      "stateMutability": "view",
      "type": "function"
    },
    {
      "inputs": [
        {
          "internalType": "uint256",
          "name": "distributionAmount_",
          "type": "uint256"
        }
      ],
      "name": "setDistributionAmount",
      "outputs": [],
      "stateMutability": "nonpayable",
      "type": "function"
    },
    {
      "inputs": [],
      "name": "getDistributionAmount",
      "outputs": [
        {
          "internalType": "uint256",
          "name": "",
          "type": "uint256"
        }
      ],
      "stateMutability": "view",
      "type": "function"
    },
    {
      "inputs": [
        {
          "internalType": "address",
          "name": "address_",
          "type": "address"
        }
      ],
      "name": "setOracle",
      "outputs": [],
      "stateMutability": "nonpayable",
      "type": "function"
    },
    {
      "inputs": [
        {
          "internalType": "address",
          "name": "_address",
          "type": "address"
        }
      ],
      "name": "hasGeneratedSmoke",
      "outputs": [
        {
          "internalType": "bool",
          "name": "",
          "type": "bool"
        }
      ],
      "stateMutability": "view",
      "type": "function"
    },
    {
      "inputs": [],
      "name": "membersCount",
      "outputs": [
        {
          "internalType": "uint256",
          "name": "",
          "type": "uint256"
        }
      ],
      "stateMutability": "view",
      "type": "function"
    }
  ],
  "bytecode": "0x6080604052620000146200012d60201b60201c565b600a620000229190620003bc565b610444620000319190620004f9565b600655620000446200012d60201b60201c565b600a620000529190620003bc565b610444620000619190620004f9565b6007553480156200007157600080fd5b506040518060400160405280600a81526020017f536d6f6b65546f6b656e000000000000000000000000000000000000000000008152506040518060400160405280600481526020017f534d4b45000000000000000000000000000000000000000000000000000000008152508160039080519060200190620000f6929190620002b1565b5080600490805190602001906200010f929190620002b1565b505050620001276000801b336200013660201b60201c565b62000612565b60006012905090565b6200014882826200014c60201b60201c565b5050565b6200015e82826200023e60201b60201c565b6200023a5760016005600084815260200190815260200160002060000160008373ffffffffffffffffffffffffffffffffffffffff1673ffffffffffffffffffffffffffffffffffffffff16815260200190815260200160002060006101000a81548160ff021916908315150217905550620001df620002a960201b60201c565b73ffffffffffffffffffffffffffffffffffffffff168173ffffffffffffffffffffffffffffffffffffffff16837f2f8788117e7eff1d82e926ec794901d17c78024a50270940304540a733656f0d60405160405180910390a45b5050565b60006005600084815260200190815260200160002060000160008373ffffffffffffffffffffffffffffffffffffffff1673ffffffffffffffffffffffffffffffffffffffff16815260200190815260200160002060009054906101000a900460ff16905092915050565b600033905090565b828054620002bf9062000571565b90600052602060002090601f016020900481019282620002e357600085556200032f565b82601f10620002fe57805160ff19168380011785556200032f565b828001600101855582156200032f579182015b828111156200032e57825182559160200191906001019062000311565b5b5090506200033e919062000342565b5090565b5b808211156200035d57600081600090555060010162000343565b5090565b6000808291508390505b6001851115620003b3578086048111156200038b576200038a620005a7565b5b60018516156200039b5780820291505b8081029050620003ab8562000605565b94506200036b565b94509492505050565b6000620003c9826200055a565b9150620003d68362000564565b9250620004057fffffffffffffffffffffffffffffffffffffffffffffffffffffffffffffffff84846200040d565b905092915050565b6000826200041f5760019050620004f2565b816200042f5760009050620004f2565b8160018114620004485760028114620004535762000489565b6001915050620004f2565b60ff841115620004685762000467620005a7565b5b8360020a915084821115620004825762000481620005a7565b5b50620004f2565b5060208310610133831016604e8410600b8410161715620004c35782820a905083811115620004bd57620004bc620005a7565b5b620004f2565b620004d2848484600162000361565b92509050818404811115620004ec57620004eb620005a7565b5b81810290505b9392505050565b600062000506826200055a565b915062000513836200055a565b9250817fffffffffffffffffffffffffffffffffffffffffffffffffffffffffffffffff04831182151516156200054f576200054e620005a7565b5b828202905092915050565b6000819050919050565b600060ff82169050919050565b600060028204905060018216806200058a57607f821691505b60208210811415620005a157620005a0620005d6565b5b50919050565b7f4e487b7100000000000000000000000000000000000000000000000000000000600052601160045260246000fd5b7f4e487b7100000000000000000000000000000000000000000000000000000000600052602260045260246000fd5b60008160011c9050919050565b61319580620006226000396000f3fe608060405234801561001057600080fd5b50600436106101cf5760003560e01c80637adbf97311610104578063a9059cbb116100a2578063db6baad011610071578063db6baad014610558578063dd62ed3e14610562578063eb660e7714610592578063fc8286fd146105ae576101cf565b8063a9059cbb146104e6578063c7cd997f14610516578063cd8ceee714610532578063d547741f1461053c576101cf565b806395d89b41116100de57806395d89b411461045c578063a217fddf1461047a578063a457c2d714610498578063a8995deb146104c8576101cf565b80637adbf973146103f25780638679d15b1461040e57806391d148541461042c576101cf565b80632f2ff15d1161017157806338013f021161014b57806338013f021461034457806339509351146103625780635d7a06a61461039257806370a08231146103c2576101cf565b80632f2ff15d146102ee578063313ce5671461030a57806336568abe14610328576101cf565b806318160ddd116101ad57806318160ddd1461025257806323b872dd14610270578063248a9ca3146102a0578063297f9af0146102d0576101cf565b806301ffc9a7146101d457806306fdde0314610204578063095ea7b314610222575b600080fd5b6101ee60048036038101906101e991906120d8565b6105ca565b6040516101fb9190612521565b60405180910390f35b61020c610644565b6040516102199190612557565b60405180910390f35b61023c6004803603810190610237919061202b565b6106d6565b6040516102499190612521565b60405180910390f35b61025a6106f4565b60405161026791906127b9565b60405180910390f35b61028a60048036038101906102859190611fd8565b6106fe565b6040516102979190612521565b60405180910390f35b6102ba60048036038101906102b5919061206b565b6107f6565b6040516102c7919061253c565b60405180910390f35b6102d8610816565b6040516102e591906127b9565b60405180910390f35b61030860048036038101906103039190612098565b610823565b005b61031261084c565b60405161031f91906127fd565b60405180910390f35b610342600480360381019061033d9190612098565b610855565b005b61034c6108d8565b604051610359919061253c565b60405180910390f35b61037c6004803603810190610377919061202b565b6108fc565b6040516103899190612521565b60405180910390f35b6103ac60048036038101906103a79190611f6b565b6109a8565b6040516103b99190612521565b60405180910390f35b6103dc60048036038101906103d79190611f6b565b6109fe565b6040516103e991906127b9565b60405180910390f35b61040c60048036038101906104079190611f6b565b610a46565b005b610416610abf565b60405161042391906127b9565b60405180910390f35b61044660048036038101906104419190612098565b610ac9565b6040516104539190612521565b60405180910390f35b610464610b34565b6040516104719190612557565b60405180910390f35b610482610bc6565b60405161048f919061253c565b60405180910390f35b6104b260048036038101906104ad919061202b565b610bcd565b6040516104bf9190612521565b60405180910390f35b6104d0610cb8565b6040516104dd91906127b9565b60405180910390f35b61050060048036038101906104fb919061202b565b610cc2565b60405161050d9190612521565b60405180910390f35b610530600480360381019061052b9190612105565b610ce0565b005b61053a610d36565b005b61055660048036038101906105519190612098565b610e85565b005b610560610eae565b005b61057c60048036038101906105779190611f98565b61103b565b60405161058991906127b9565b60405180910390f35b6105ac60048036038101906105a79190612105565b6110c2565b005b6105c860048036038101906105c39190612105565b6111fa565b005b60007f7965db0b000000000000000000000000000000000000000000000000000000007bffffffffffffffffffffffffffffffffffffffffffffffffffffffff1916827bffffffffffffffffffffffffffffffffffffffffffffffffffffffff1916148061063d575061063c82611250565b5b9050919050565b60606003805461065390612a3c565b80601f016020809104026020016040519081016040528092919081815260200182805461067f90612a3c565b80156106cc5780601f106106a1576101008083540402835291602001916106cc565b820191906000526020600020905b8154815290600101906020018083116106af57829003601f168201915b5050505050905090565b60006106ea6106e36112ba565b84846112c2565b6001905092915050565b6000600254905090565b600061070b84848461148d565b6000600160008673ffffffffffffffffffffffffffffffffffffffff1673ffffffffffffffffffffffffffffffffffffffff16815260200190815260200160002060006107566112ba565b73ffffffffffffffffffffffffffffffffffffffff1673ffffffffffffffffffffffffffffffffffffffff168152602001908152602001600020549050828110156107d6576040517f08c379a00000000000000000000000000000000000000000000000000000000081526004016107cd90612679565b60405180910390fd5b6107ea856107e26112ba565b8584036112c2565b60019150509392505050565b600060056000838152602001908152602001600020600101549050919050565b6000600980549050905090565b61082c826107f6565b61083d816108386112ba565b61170e565b61084783836117ab565b505050565b60006012905090565b61085d6112ba565b73ffffffffffffffffffffffffffffffffffffffff168173ffffffffffffffffffffffffffffffffffffffff16146108ca576040517f08c379a00000000000000000000000000000000000000000000000000000000081526004016108c190612779565b60405180910390fd5b6108d4828261188c565b5050565b7f352d05fe3946dbe49277552ba941e744d5a96d9c60bc1ba0ea5f1d3ae000f7c881565b600061099e6109096112ba565b8484600160006109176112ba565b73ffffffffffffffffffffffffffffffffffffffff1673ffffffffffffffffffffffffffffffffffffffff16815260200190815260200160002060008873ffffffffffffffffffffffffffffffffffffffff1673ffffffffffffffffffffffffffffffffffffffff16815260200190815260200160002054610999919061283f565b6112c2565b6001905092915050565b6000600860008373ffffffffffffffffffffffffffffffffffffffff1673ffffffffffffffffffffffffffffffffffffffff16815260200190815260200160002060009054906101000a900460ff169050919050565b60008060008373ffffffffffffffffffffffffffffffffffffffff1673ffffffffffffffffffffffffffffffffffffffff168152602001908152602001600020549050919050565b610a536000801b33610ac9565b610a92576040517f08c379a0000000000000000000000000000000000000000000000000000000008152600401610a89906126d9565b60405180910390fd5b610abc7f352d05fe3946dbe49277552ba941e744d5a96d9c60bc1ba0ea5f1d3ae000f7c882610823565b50565b6000600754905090565b60006005600084815260200190815260200160002060000160008373ffffffffffffffffffffffffffffffffffffffff1673ffffffffffffffffffffffffffffffffffffffff16815260200190815260200160002060009054906101000a900460ff16905092915050565b606060048054610b4390612a3c565b80601f0160208091040260200160405190810160405280929190818152602001828054610b6f90612a3c565b8015610bbc5780601f10610b9157610100808354040283529160200191610bbc565b820191906000526020600020905b815481529060010190602001808311610b9f57829003601f168201915b5050505050905090565b6000801b81565b60008060016000610bdc6112ba565b73ffffffffffffffffffffffffffffffffffffffff1673ffffffffffffffffffffffffffffffffffffffff16815260200190815260200160002060008573ffffffffffffffffffffffffffffffffffffffff1673ffffffffffffffffffffffffffffffffffffffff16815260200190815260200160002054905082811015610c99576040517f08c379a0000000000000000000000000000000000000000000000000000000008152600401610c9090612759565b60405180910390fd5b610cad610ca46112ba565b858584036112c2565b600191505092915050565b6000600654905090565b6000610cd6610ccf6112ba565b848461148d565b6001905092915050565b610ced6000801b33610ac9565b610d2c576040517f08c379a0000000000000000000000000000000000000000000000000000000008152600401610d2390612719565b60405180910390fd5b8060068190555050565b610d607f352d05fe3946dbe49277552ba941e744d5a96d9c60bc1ba0ea5f1d3ae000f7c833610ac9565b610d9f576040517f08c379a0000000000000000000000000000000000000000000000000000000008152600401610d9690612659565b60405180910390fd5b6000600160098054905010610dcf57610dc860098054905060075461196e90919063ffffffff16565b9050610dd5565b60075490505b60005b600980549050811015610e4857610e2d60098281548110610dfc57610dfb612afb565b5b9060005260206000200160009054906101000a900473ffffffffffffffffffffffffffffffffffffffff1683611984565b610e41600182611ae490919063ffffffff16565b9050610dd8565b507fa4b533e737a64f4b187c6009af48ee835cd4768a2dcdda6f59611f8667a429084282604051610e7a9291906127d4565b60405180910390a150565b610e8e826107f6565b610e9f81610e9a6112ba565b61170e565b610ea9838361188c565b505050565b600860003373ffffffffffffffffffffffffffffffffffffffff1673ffffffffffffffffffffffffffffffffffffffff16815260200190815260200160002060009054906101000a900460ff1615610f3b576040517f08c379a0000000000000000000000000000000000000000000000000000000008152600401610f32906125d9565b60405180910390fd5b610f4733600654611984565b6009339080600181540180825580915050600190039060005260206000200160009091909190916101000a81548173ffffffffffffffffffffffffffffffffffffffff021916908373ffffffffffffffffffffffffffffffffffffffff1602179055506001600860003373ffffffffffffffffffffffffffffffffffffffff1673ffffffffffffffffffffffffffffffffffffffff16815260200190815260200160002060006101000a81548160ff0219169083151502179055507fb4dcb6dd550f27b5917ebf674899ea7046ff91790c6f9f01431617ad39819db23360405161103191906124dd565b60405180910390a1565b6000600160008473ffffffffffffffffffffffffffffffffffffffff1673ffffffffffffffffffffffffffffffffffffffff16815260200190815260200160002060008373ffffffffffffffffffffffffffffffffffffffff1673ffffffffffffffffffffffffffffffffffffffff16815260200190815260200160002054905092915050565b806110cc336109fe565b101561110d576040517f08c379a000000000000000000000000000000000000000000000000000000000815260040161110490612699565b60405180910390fd5b6111173382611afa565b60006001600980549050106111455761113e6009805490508361196e90919063ffffffff16565b9050611149565b8190505b60005b6009805490508110156111bc576111a1600982815481106111705761116f612afb565b5b9060005260206000200160009054906101000a900473ffffffffffffffffffffffffffffffffffffffff1683611984565b6111b5600182611ae490919063ffffffff16565b905061114c565b507f5738a5b61d0eb21b15b8e5fc8e3fa55d6e5af02748a3e87a3bc1e3134cf8e44c33836040516111ee9291906124f8565b60405180910390a15050565b6112076000801b33610ac9565b611246576040517f08c379a000000000000000000000000000000000000000000000000000000000815260040161123d90612639565b60405180910390fd5b8060078190555050565b60007f01ffc9a7000000000000000000000000000000000000000000000000000000007bffffffffffffffffffffffffffffffffffffffffffffffffffffffff1916827bffffffffffffffffffffffffffffffffffffffffffffffffffffffff1916149050919050565b600033905090565b600073ffffffffffffffffffffffffffffffffffffffff168373ffffffffffffffffffffffffffffffffffffffff161415611332576040517f08c379a000000000000000000000000000000000000000000000000000000000815260040161132990612739565b60405180910390fd5b600073ffffffffffffffffffffffffffffffffffffffff168273ffffffffffffffffffffffffffffffffffffffff1614156113a2576040517f08c379a0000000000000000000000000000000000000000000000000000000008152600401611399906125f9565b60405180910390fd5b80600160008573ffffffffffffffffffffffffffffffffffffffff1673ffffffffffffffffffffffffffffffffffffffff16815260200190815260200160002060008473ffffffffffffffffffffffffffffffffffffffff1673ffffffffffffffffffffffffffffffffffffffff168152602001908152602001600020819055508173ffffffffffffffffffffffffffffffffffffffff168373ffffffffffffffffffffffffffffffffffffffff167f8c5be1e5ebec7d5bd14f71427d1e84f3dd0314c0f7b2291e5b200ac8c7c3b9258360405161148091906127b9565b60405180910390a3505050565b600073ffffffffffffffffffffffffffffffffffffffff168373ffffffffffffffffffffffffffffffffffffffff1614156114fd576040517f08c379a00000000000000000000000000000000000000000000000000000000081526004016114f4906126f9565b60405180910390fd5b600073ffffffffffffffffffffffffffffffffffffffff168273ffffffffffffffffffffffffffffffffffffffff16141561156d576040517f08c379a000000000000000000000000000000000000000000000000000000000815260040161156490612599565b60405180910390fd5b611578838383611cd1565b60008060008573ffffffffffffffffffffffffffffffffffffffff1673ffffffffffffffffffffffffffffffffffffffff168152602001908152602001600020549050818110156115fe576040517f08c379a00000000000000000000000000000000000000000000000000000000081526004016115f590612619565b60405180910390fd5b8181036000808673ffffffffffffffffffffffffffffffffffffffff1673ffffffffffffffffffffffffffffffffffffffff16815260200190815260200160002081905550816000808573ffffffffffffffffffffffffffffffffffffffff1673ffffffffffffffffffffffffffffffffffffffff1681526020019081526020016000206000828254611691919061283f565b925050819055508273ffffffffffffffffffffffffffffffffffffffff168473ffffffffffffffffffffffffffffffffffffffff167fddf252ad1be2c89b69c2b068fc378daa952ba7f163c4a11628f55a4df523b3ef846040516116f591906127b9565b60405180910390a3611708848484611cd6565b50505050565b6117188282610ac9565b6117a75761173d8173ffffffffffffffffffffffffffffffffffffffff166014611cdb565b61174b8360001c6020611cdb565b60405160200161175c9291906124a3565b6040516020818303038152906040526040517f08c379a000000000000000000000000000000000000000000000000000000000815260040161179e9190612557565b60405180910390fd5b5050565b6117b58282610ac9565b6118885760016005600084815260200190815260200160002060000160008373ffffffffffffffffffffffffffffffffffffffff1673ffffffffffffffffffffffffffffffffffffffff16815260200190815260200160002060006101000a81548160ff02191690831515021790555061182d6112ba565b73ffffffffffffffffffffffffffffffffffffffff168173ffffffffffffffffffffffffffffffffffffffff16837f2f8788117e7eff1d82e926ec794901d17c78024a50270940304540a733656f0d60405160405180910390a45b5050565b6118968282610ac9565b1561196a5760006005600084815260200190815260200160002060000160008373ffffffffffffffffffffffffffffffffffffffff1673ffffffffffffffffffffffffffffffffffffffff16815260200190815260200160002060006101000a81548160ff02191690831515021790555061190f6112ba565b73ffffffffffffffffffffffffffffffffffffffff168173ffffffffffffffffffffffffffffffffffffffff16837ff6391f5c32d9c69d2a47ea670b442974b53935d1edc7fd64eb21e047a839171b60405160405180910390a45b5050565b6000818361197c9190612895565b905092915050565b600073ffffffffffffffffffffffffffffffffffffffff168273ffffffffffffffffffffffffffffffffffffffff1614156119f4576040517f08c379a00000000000000000000000000000000000000000000000000000000081526004016119eb90612799565b60405180910390fd5b611a0060008383611cd1565b8060026000828254611a12919061283f565b92505081905550806000808473ffffffffffffffffffffffffffffffffffffffff1673ffffffffffffffffffffffffffffffffffffffff1681526020019081526020016000206000828254611a67919061283f565b925050819055508173ffffffffffffffffffffffffffffffffffffffff16600073ffffffffffffffffffffffffffffffffffffffff167fddf252ad1be2c89b69c2b068fc378daa952ba7f163c4a11628f55a4df523b3ef83604051611acc91906127b9565b60405180910390a3611ae060008383611cd6565b5050565b60008183611af2919061283f565b905092915050565b600073ffffffffffffffffffffffffffffffffffffffff168273ffffffffffffffffffffffffffffffffffffffff161415611b6a576040517f08c379a0000000000000000000000000000000000000000000000000000000008152600401611b61906126b9565b60405180910390fd5b611b7682600083611cd1565b60008060008473ffffffffffffffffffffffffffffffffffffffff1673ffffffffffffffffffffffffffffffffffffffff16815260200190815260200160002054905081811015611bfc576040517f08c379a0000000000000000000000000000000000000000000000000000000008152600401611bf3906125b9565b60405180910390fd5b8181036000808573ffffffffffffffffffffffffffffffffffffffff1673ffffffffffffffffffffffffffffffffffffffff168152602001908152602001600020819055508160026000828254611c539190612920565b92505081905550600073ffffffffffffffffffffffffffffffffffffffff168373ffffffffffffffffffffffffffffffffffffffff167fddf252ad1be2c89b69c2b068fc378daa952ba7f163c4a11628f55a4df523b3ef84604051611cb891906127b9565b60405180910390a3611ccc83600084611cd6565b505050565b505050565b505050565b606060006002836002611cee91906128c6565b611cf8919061283f565b67ffffffffffffffff811115611d1157611d10612b2a565b5b6040519080825280601f01601f191660200182016040528015611d435781602001600182028036833780820191505090505b5090507f300000000000000000000000000000000000000000000000000000000000000081600081518110611d7b57611d7a612afb565b5b60200101907effffffffffffffffffffffffffffffffffffffffffffffffffffffffffffff1916908160001a9053507f780000000000000000000000000000000000000000000000000000000000000081600181518110611ddf57611dde612afb565b5b60200101907effffffffffffffffffffffffffffffffffffffffffffffffffffffffffffff1916908160001a90535060006001846002611e1f91906128c6565b611e29919061283f565b90505b6001811115611ec9577f3031323334353637383961626364656600000000000000000000000000000000600f861660108110611e6b57611e6a612afb565b5b1a60f81b828281518110611e8257611e81612afb565b5b60200101907effffffffffffffffffffffffffffffffffffffffffffffffffffffffffffff1916908160001a905350600485901c945080611ec290612a12565b9050611e2c565b5060008414611f0d576040517f08c379a0000000000000000000000000000000000000000000000000000000008152600401611f0490612579565b60405180910390fd5b8091505092915050565b600081359050611f2681613103565b92915050565b600081359050611f3b8161311a565b92915050565b600081359050611f5081613131565b92915050565b600081359050611f6581613148565b92915050565b600060208284031215611f8157611f80612b59565b5b6000611f8f84828501611f17565b91505092915050565b60008060408385031215611faf57611fae612b59565b5b6000611fbd85828601611f17565b9250506020611fce85828601611f17565b9150509250929050565b600080600060608486031215611ff157611ff0612b59565b5b6000611fff86828701611f17565b935050602061201086828701611f17565b925050604061202186828701611f56565b9150509250925092565b6000806040838503121561204257612041612b59565b5b600061205085828601611f17565b925050602061206185828601611f56565b9150509250929050565b60006020828403121561208157612080612b59565b5b600061208f84828501611f2c565b91505092915050565b600080604083850312156120af576120ae612b59565b5b60006120bd85828601611f2c565b92505060206120ce85828601611f17565b9150509250929050565b6000602082840312156120ee576120ed612b59565b5b60006120fc84828501611f41565b91505092915050565b60006020828403121561211b5761211a612b59565b5b600061212984828501611f56565b91505092915050565b61213b81612954565b82525050565b61214a81612966565b82525050565b61215981612972565b82525050565b600061216a82612818565b6121748185612823565b93506121848185602086016129df565b61218d81612b5e565b840191505092915050565b60006121a382612818565b6121ad8185612834565b93506121bd8185602086016129df565b80840191505092915050565b60006121d6602083612823565b91506121e182612b6f565b602082019050919050565b60006121f9602383612823565b915061220482612b98565b604082019050919050565b600061221c602283612823565b915061222782612be7565b604082019050919050565b600061223f603083612823565b915061224a82612c36565b604082019050919050565b6000612262602283612823565b915061226d82612c85565b604082019050919050565b6000612285602683612823565b915061229082612cd4565b604082019050919050565b60006122a8603683612823565b91506122b382612d23565b604082019050919050565b60006122cb602f83612823565b91506122d682612d72565b604082019050919050565b60006122ee602883612823565b91506122f982612dc1565b604082019050919050565b6000612311602683612823565b915061231c82612e10565b604082019050919050565b6000612334602183612823565b915061233f82612e5f565b604082019050919050565b6000612357602483612823565b915061236282612eae565b604082019050919050565b600061237a602583612823565b915061238582612efd565b604082019050919050565b600061239d602e83612823565b91506123a882612f4c565b604082019050919050565b60006123c0602483612823565b91506123cb82612f9b565b604082019050919050565b60006123e3601783612834565b91506123ee82612fea565b601782019050919050565b6000612406602583612823565b915061241182613013565b604082019050919050565b6000612429601183612834565b915061243482613062565b601182019050919050565b600061244c602f83612823565b91506124578261308b565b604082019050919050565b600061246f601f83612823565b915061247a826130da565b602082019050919050565b61248e816129c8565b82525050565b61249d816129d2565b82525050565b60006124ae826123d6565b91506124ba8285612198565b91506124c58261241c565b91506124d18284612198565b91508190509392505050565b60006020820190506124f26000830184612132565b92915050565b600060408201905061250d6000830185612132565b61251a6020830184612485565b9392505050565b60006020820190506125366000830184612141565b92915050565b60006020820190506125516000830184612150565b92915050565b60006020820190508181036000830152612571818461215f565b905092915050565b60006020820190508181036000830152612592816121c9565b9050919050565b600060208201905081810360008301526125b2816121ec565b9050919050565b600060208201905081810360008301526125d28161220f565b9050919050565b600060208201905081810360008301526125f281612232565b9050919050565b6000602082019050818103600083015261261281612255565b9050919050565b6000602082019050818103600083015261263281612278565b9050919050565b600060208201905081810360008301526126528161229b565b9050919050565b60006020820190508181036000830152612672816122be565b9050919050565b60006020820190508181036000830152612692816122e1565b9050919050565b600060208201905081810360008301526126b281612304565b9050919050565b600060208201905081810360008301526126d281612327565b9050919050565b600060208201905081810360008301526126f28161234a565b9050919050565b600060208201905081810360008301526127128161236d565b9050919050565b6000602082019050818103600083015261273281612390565b9050919050565b60006020820190508181036000830152612752816123b3565b9050919050565b60006020820190508181036000830152612772816123f9565b9050919050565b600060208201905081810360008301526127928161243f565b9050919050565b600060208201905081810360008301526127b281612462565b9050919050565b60006020820190506127ce6000830184612485565b92915050565b60006040820190506127e96000830185612485565b6127f66020830184612485565b9392505050565b60006020820190506128126000830184612494565b92915050565b600081519050919050565b600082825260208201905092915050565b600081905092915050565b600061284a826129c8565b9150612855836129c8565b9250827fffffffffffffffffffffffffffffffffffffffffffffffffffffffffffffffff0382111561288a57612889612a6e565b5b828201905092915050565b60006128a0826129c8565b91506128ab836129c8565b9250826128bb576128ba612a9d565b5b828204905092915050565b60006128d1826129c8565b91506128dc836129c8565b9250817fffffffffffffffffffffffffffffffffffffffffffffffffffffffffffffffff048311821515161561291557612914612a6e565b5b828202905092915050565b600061292b826129c8565b9150612936836129c8565b92508282101561294957612948612a6e565b5b828203905092915050565b600061295f826129a8565b9050919050565b60008115159050919050565b6000819050919050565b60007fffffffff0000000000000000000000000000000000000000000000000000000082169050919050565b600073ffffffffffffffffffffffffffffffffffffffff82169050919050565b6000819050919050565b600060ff82169050919050565b60005b838110156129fd5780820151818401526020810190506129e2565b83811115612a0c576000848401525b50505050565b6000612a1d826129c8565b91506000821415612a3157612a30612a6e565b5b600182039050919050565b60006002820490506001821680612a5457607f821691505b60208210811415612a6857612a67612acc565b5b50919050565b7f4e487b7100000000000000000000000000000000000000000000000000000000600052601160045260246000fd5b7f4e487b7100000000000000000000000000000000000000000000000000000000600052601260045260246000fd5b7f4e487b7100000000000000000000000000000000000000000000000000000000600052602260045260246000fd5b7f4e487b7100000000000000000000000000000000000000000000000000000000600052603260045260246000fd5b7f4e487b7100000000000000000000000000000000000000000000000000000000600052604160045260246000fd5b600080fd5b6000601f19601f8301169050919050565b7f537472696e67733a20686578206c656e67746820696e73756666696369656e74600082015250565b7f45524332303a207472616e7366657220746f20746865207a65726f206164647260008201527f6573730000000000000000000000000000000000000000000000000000000000602082015250565b7f45524332303a206275726e20616d6f756e7420657863656564732062616c616e60008201527f6365000000000000000000000000000000000000000000000000000000000000602082015250565b7f4572726f723a205468697320616464726573732068617320616c72656164792060008201527f67656e65726174656420736d6f6b652e00000000000000000000000000000000602082015250565b7f45524332303a20617070726f766520746f20746865207a65726f20616464726560008201527f7373000000000000000000000000000000000000000000000000000000000000602082015250565b7f45524332303a207472616e7366657220616d6f756e742065786365656473206260008201527f616c616e63650000000000000000000000000000000000000000000000000000602082015250565b7f4572726f723a204f6e6c7920746865206f776e65722063616e2073657420746860008201527f6520646973747269627574696f6e20616d6f756e742e00000000000000000000602082015250565b7f4572726f723a204f6e6c7920616e206f7261636c652063616e2063616c6c206160008201527f20776f6f207765646e65736461792e0000000000000000000000000000000000602082015250565b7f45524332303a207472616e7366657220616d6f756e742065786365656473206160008201527f6c6c6f77616e6365000000000000000000000000000000000000000000000000602082015250565b7f45524332303a205472616e7366657220616d6f756e742065786365656473206260008201527f616c616e63650000000000000000000000000000000000000000000000000000602082015250565b7f45524332303a206275726e2066726f6d20746865207a65726f2061646472657360008201527f7300000000000000000000000000000000000000000000000000000000000000602082015250565b7f4572726f723a204f6e6c7920616e2061646d696e2063616e207365742061207260008201527f6f6c652e00000000000000000000000000000000000000000000000000000000602082015250565b7f45524332303a207472616e736665722066726f6d20746865207a65726f20616460008201527f6472657373000000000000000000000000000000000000000000000000000000602082015250565b7f4572726f723a204f6e6c7920746865206f776e65722063616e2073657420746860008201527f65206d696e7420616d6f756e742e000000000000000000000000000000000000602082015250565b7f45524332303a20617070726f76652066726f6d20746865207a65726f2061646460008201527f7265737300000000000000000000000000000000000000000000000000000000602082015250565b7f416363657373436f6e74726f6c3a206163636f756e7420000000000000000000600082015250565b7f45524332303a2064656372656173656420616c6c6f77616e63652062656c6f7760008201527f207a65726f000000000000000000000000000000000000000000000000000000602082015250565b7f206973206d697373696e6720726f6c6520000000000000000000000000000000600082015250565b7f416363657373436f6e74726f6c3a2063616e206f6e6c792072656e6f756e636560008201527f20726f6c657320666f722073656c660000000000000000000000000000000000602082015250565b7f45524332303a206d696e7420746f20746865207a65726f206164647265737300600082015250565b61310c81612954565b811461311757600080fd5b50565b61312381612972565b811461312e57600080fd5b50565b61313a8161297c565b811461314557600080fd5b50565b613151816129c8565b811461315c57600080fd5b5056fea26469706673582212203c63e7ddfe7ec1bf07cd70ebe0b168cc8f64c952891acb9ac6d14534c04a5b2a64736f6c63430008070033",
  "immutableReferences": {},
  "source": "//  contracts/SmokeToken.sol\r\n//  SPDX-License-Identifier: MIT\r\npragma solidity >=0.8.7;\r\n\r\nimport \"../node_modules/@openzeppelin/contracts/utils/math/SafeMath.sol\";\r\nimport \"../node_modules/@openzeppelin/contracts/access/AccessControl.sol\";\r\nimport \"../node_modules/@openzeppelin/contracts/token/ERC20/ERC20.sol\";\r\n\r\n/// @title SmokeToken for a private discord group.\r\n/// @author adamdire\r\n/// @notice A token to use between friends as a meme / form of validation of our ranking.\r\ncontract SmokeToken is ERC20, AccessControl {\r\n    using SafeMath for uint256;\r\n\r\n    // Roles\r\n    bytes32 public constant ORACLE = keccak256(\"ORACLE\");\r\n\r\n    //  Variables\r\n    uint256 private _mintAmount = 1092 * 10**decimals();\r\n    uint256 private _distributionAmount = 1092 * 10**decimals();\r\n    mapping(address => bool) private _hasGeneratedSmoke;\r\n    address[] private _members;\r\n\r\n    //  Events\r\n    event Wooed(address address_, uint256 amount);\r\n    event NewMember(address address_);\r\n    event WooWednesday(uint256 timestamp, uint256 individualAmount);\r\n\r\n    constructor() ERC20(\"SmokeToken\", \"SMKE\") {\r\n        _setupRole(DEFAULT_ADMIN_ROLE, msg.sender);\r\n    }\r\n\r\n    function generateSmoke() external {\r\n        require(\r\n            !_hasGeneratedSmoke[msg.sender],\r\n            \"Error: This address has already generated smoke.\"\r\n        );\r\n        _mint(msg.sender, _mintAmount);\r\n        _members.push(msg.sender);\r\n        _hasGeneratedSmoke[msg.sender] = true;\r\n        emit NewMember(msg.sender);\r\n    }\r\n\r\n    function woo(uint256 amount) external {\r\n        require(\r\n            balanceOf(msg.sender) >= amount,\r\n            \"ERC20: Transfer amount exceeds balance\"\r\n        );\r\n        _burn(msg.sender, amount);\r\n\r\n        uint256 individualAmount;\r\n        if (_members.length >= 1) {\r\n            individualAmount = amount.div(_members.length);\r\n        } else {\r\n            individualAmount = amount;\r\n        }\r\n\r\n        for (uint256 i = 0; i < _members.length; i = i.add(1)) {\r\n            _mint(_members[i], individualAmount);\r\n        }\r\n\r\n        emit Wooed(msg.sender, amount);\r\n    }\r\n\r\n    function wooWednesday() external {\r\n        require(\r\n            hasRole(ORACLE, msg.sender),\r\n            \"Error: Only an oracle can call a woo wednesday.\"\r\n        );\r\n\r\n        uint256 individualAmount;\r\n        if (_members.length >= 1) {\r\n            individualAmount = _distributionAmount.div(_members.length);\r\n        } else {\r\n            individualAmount = _distributionAmount;\r\n        }\r\n\r\n        for (uint256 i = 0; i < _members.length; i = i.add(1)) {\r\n            _mint(_members[i], individualAmount);\r\n        }\r\n\r\n        emit WooWednesday(block.timestamp, individualAmount);\r\n    }\r\n\r\n    function setMintAmount(uint256 mintAmount_) external {\r\n        require(\r\n            hasRole(DEFAULT_ADMIN_ROLE, msg.sender),\r\n            \"Error: Only the owner can set the mint amount.\"\r\n        );\r\n        _mintAmount = mintAmount_;\r\n    }\r\n\r\n    function getMintAmount() external view returns (uint256) {\r\n        return _mintAmount;\r\n    }\r\n\r\n    function setDistributionAmount(uint256 distributionAmount_) external {\r\n        require(\r\n            hasRole(DEFAULT_ADMIN_ROLE, msg.sender),\r\n            \"Error: Only the owner can set the distribution amount.\"\r\n        );\r\n        _distributionAmount = distributionAmount_;\r\n    }\r\n\r\n    function getDistributionAmount() external view returns (uint256) {\r\n        return _distributionAmount;\r\n    }\r\n\r\n    function setOracle(address address_) external {\r\n        require(\r\n            hasRole(DEFAULT_ADMIN_ROLE, msg.sender),\r\n            \"Error: Only an admin can set a role.\"\r\n        );\r\n\r\n        grantRole(ORACLE, address_);\r\n    }\r\n\r\n    function hasGeneratedSmoke(address _address) external view returns (bool) {\r\n        return _hasGeneratedSmoke[_address];\r\n    }\r\n\r\n    function membersCount() external view returns (uint256) {\r\n        return _members.length;\r\n    }\r\n}\r\n",
  "sourcePath": "C:\\Users\\adamd\\development\\SmokeCoin\\token\\contracts\\SmokeToken.sol",
  "compiler": {
    "name": "solc",
    "version": "0.8.7+commit.e28d00a7.Emscripten.clang"
  },
  "schemaVersion": "3.4.3",
  "updatedAt": "2021-08-29T13:26:24.159Z",
  "devdoc": {
    "author": "adamdire",
    "kind": "dev",
    "methods": {
      "allowance(address,address)": {
        "details": "See {IERC20-allowance}."
      },
      "approve(address,uint256)": {
        "details": "See {IERC20-approve}. Requirements: - `spender` cannot be the zero address."
      },
      "balanceOf(address)": {
        "details": "See {IERC20-balanceOf}."
      },
      "decimals()": {
        "details": "Returns the number of decimals used to get its user representation. For example, if `decimals` equals `2`, a balance of `505` tokens should be displayed to a user as `5.05` (`505 / 10 ** 2`). Tokens usually opt for a value of 18, imitating the relationship between Ether and Wei. This is the value {ERC20} uses, unless this function is overridden; NOTE: This information is only used for _display_ purposes: it in no way affects any of the arithmetic of the contract, including {IERC20-balanceOf} and {IERC20-transfer}."
      },
      "decreaseAllowance(address,uint256)": {
        "details": "Atomically decreases the allowance granted to `spender` by the caller. This is an alternative to {approve} that can be used as a mitigation for problems described in {IERC20-approve}. Emits an {Approval} event indicating the updated allowance. Requirements: - `spender` cannot be the zero address. - `spender` must have allowance for the caller of at least `subtractedValue`."
      },
      "getRoleAdmin(bytes32)": {
        "details": "Returns the admin role that controls `role`. See {grantRole} and {revokeRole}. To change a role's admin, use {_setRoleAdmin}."
      },
      "grantRole(bytes32,address)": {
        "details": "Grants `role` to `account`. If `account` had not been already granted `role`, emits a {RoleGranted} event. Requirements: - the caller must have ``role``'s admin role."
      },
      "hasRole(bytes32,address)": {
        "details": "Returns `true` if `account` has been granted `role`."
      },
      "increaseAllowance(address,uint256)": {
        "details": "Atomically increases the allowance granted to `spender` by the caller. This is an alternative to {approve} that can be used as a mitigation for problems described in {IERC20-approve}. Emits an {Approval} event indicating the updated allowance. Requirements: - `spender` cannot be the zero address."
      },
      "name()": {
        "details": "Returns the name of the token."
      },
      "renounceRole(bytes32,address)": {
        "details": "Revokes `role` from the calling account. Roles are often managed via {grantRole} and {revokeRole}: this function's purpose is to provide a mechanism for accounts to lose their privileges if they are compromised (such as when a trusted device is misplaced). If the calling account had been granted `role`, emits a {RoleRevoked} event. Requirements: - the caller must be `account`."
      },
      "revokeRole(bytes32,address)": {
        "details": "Revokes `role` from `account`. If `account` had been granted `role`, emits a {RoleRevoked} event. Requirements: - the caller must have ``role``'s admin role."
      },
      "supportsInterface(bytes4)": {
        "details": "See {IERC165-supportsInterface}."
      },
      "symbol()": {
        "details": "Returns the symbol of the token, usually a shorter version of the name."
      },
      "totalSupply()": {
        "details": "See {IERC20-totalSupply}."
      },
      "transfer(address,uint256)": {
        "details": "See {IERC20-transfer}. Requirements: - `recipient` cannot be the zero address. - the caller must have a balance of at least `amount`."
      },
      "transferFrom(address,address,uint256)": {
        "details": "See {IERC20-transferFrom}. Emits an {Approval} event indicating the updated allowance. This is not required by the EIP. See the note at the beginning of {ERC20}. Requirements: - `sender` and `recipient` cannot be the zero address. - `sender` must have a balance of at least `amount`. - the caller must have allowance for ``sender``'s tokens of at least `amount`."
      }
    },
    "title": "SmokeToken for a private discord group.",
    "version": 1
  },
  "userdoc": {
    "kind": "user",
    "methods": {},
    "notice": "A token to use between friends as a meme / form of validation of our ranking.",
    "version": 1
  }
}